:020000040000fa
:080000000002040000000000f2
:020000040000fa
:04000800fe020000f4
:020000040000fa
:04000c00fe020000f0
:020000040000fa
:04001000fe020000ec
:020000040000fa
:04001400fe020000e8
:020000040000fa
:04001800fe020000e4
:020000040000fa
:04001c00fe020000e0
:020000040000fa
:04002000fe020000dc
:020000040000fa
:04002400fe020000d8
:020000040000fa
:04002800fe020000d4
:020000040000fa
:04002c00fe020000d0
:020000040000fa
:04003000fe020000cc
:020000040000fa
:04003400c8020000fe
:020000040000fa
:04003800fe020000c4
:020000040000fa
:04003c00fe020000c0
:020000040000fa
:04004000fe020000bc
:020000040000fa
:04004400da020000dc
:020000040000fa
:04004800ec020000c6
:020000040000fa
:04004c00fe020000b0
:020000040000fa
:04005000fe020000ac
:020000040000fa
:04005400fe020000a8
:020000040000fa
:04005800fe020000a4
:020000040000fa
:04005c00fe020000a0
:020000040000fa
:04006000fe0200009c
:020000040000fa
:04006400fe02000098
:020000040000fa
:04006800fe02000094
:020000040000fa
:04006c00fe02000090
:020000040000fa
:04007000fe0200008c
:020000040000fa
:04007400fe02000088
:020000040000fa
:04007800fe02000084
:020000040000fa
:04007c00fe02000080
:020000040000fa
:04008000fe0200007c
:020000040000fa
:04008400fe02000078
:020000040000fa
:04008800fe02000074
:020000040000fa
:04008c00fe02000070
:020000040000fa
:04009000fe0200006c
:020000040000fa
:04009400fe02000068
:020000040000fa
:04009800fe02000064
:020000040000fa
:04009c00fe02000060
:020000040000fa
:0400a000fe0200005c
:020000040000fa
:0400a400fe02000058
:020000040000fa
:0400a800fe02000054
:020000040000fa
:0400ac00fe02000050
:020000040000fa
:0400b000fe0200004c
:020000040000fa
:0400b400fe02000048
:020000040000fa
:0400b800fe02000044
:020000040000fa
:0400bc00fe02000040
:020000040000fa
:0400c000fe0200003c
:020000040000fa
:0400c400fe02000038
:020000040000fa
:0400c800fe02000034
:020000040000fa
:0400cc00fe02000030
:020000040000fa
:0400d000fe0200002c
:020000040000fa
:0400d400fe02000028
:020000040000fa
:0400d800fe02000024
:020000040000fa
:0400dc00fe02000020
:020000040000fa
:0400e000fe0200001c
:020000040000fa
:0400e400fe02000018
:020000040000fa
:0400e800fe02000014
:020000040000fa
:0400ec00fe02000010
:020000040000fa
:0400f000fe0200000c
:020000040000fa
:0400f400fe02000008
:020000040000fa
:0400f800fe02000004
:020000040000fa
:0400fc00fe02000000
:020000040000fa
:04010000fe020000fb
:020000040000fa
:04010400fe020000f7
:020000040000fa
:04010800fe020000f3
:020000040000fa
:04010c00fe020000ef
:020000040000fa
:04011000fe020000eb
:020000040000fa
:04011400fe020000e7
:020000040000fa
:04011800fe020000e3
:020000040000fa
:04011c00fe020000df
:020000040000fa
:04012000fe020000db
:020000040000fa
:04012400fe020000d7
:020000040000fa
:04012800fe020000d3
:020000040000fa
:04012c00fe020000cf
:020000040000fa
:04013000fe020000cb
:020000040000fa
:04013400fe020000c7
:020000040000fa
:04013800fe020000c3
:020000040000fa
:04013c00fe020000bf
:020000040000fa
:04014000fe020000bb
:020000040000fa
:04014400fe020000b7
:020000040000fa
:04014800fe020000b3
:020000040000fa
:04014c00fe020000af
:020000040000fa
:04015000fe020000ab
:020000040000fa
:04020800fe020000f2
:020000040000fa
:04020c00fe020000ee
:020000040000fa
:04021000fe020000ea
:020000040000fa
:04021400fe020000e6
:020000040000fa
:04021800fe020000e2
:020000040000fa
:04021c00fe020000de
:020000040000fa
:04022000fe020000da
:020000040000fa
:04022400fe020000d6
:020000040000fa
:04022800fe020000d2
:020000040000fa
:04022c00fe020000ce
:020000040000fa
:04023000fe020000ca
:020000040000fa
:04023400c8020000fc
:020000040000fa
:04023800fe020000c2
:020000040000fa
:04023c00fe020000be
:020000040000fa
:04024000fe020000ba
:020000040000fa
:04024400da020000da
:020000040000fa
:04024800ec020000c4
:020000040000fa
:04024c00fe020000ae
:020000040000fa
:04025000fe020000aa
:020000040000fa
:04025400fe020000a6
:020000040000fa
:04025800fe020000a2
:020000040000fa
:04025c00fe0200009e
:020000040000fa
:04026000fe0200009a
:020000040000fa
:04026400fe02000096
:020000040000fa
:04026800fe02000092
:020000040000fa
:04026c00fe0200008e
:020000040000fa
:04027000fe0200008a
:020000040000fa
:04027400fe02000086
:020000040000fa
:04027800fe02000082
:020000040000fa
:04027c00fe0200007e
:020000040000fa
:04028000fe0200007a
:020000040000fa
:04028400fe02000076
:020000040000fa
:04028800fe02000072
:020000040000fa
:04028c00fe0200006e
:020000040000fa
:04029000fe0200006a
:020000040000fa
:04029400fe02000066
:020000040000fa
:04029800fe02000062
:020000040000fa
:04029c00fe0200005e
:020000040000fa
:0402a000fe0200005a
:020000040000fa
:0402a400fe02000056
:020000040000fa
:0402a800fe02000052
:020000040000fa
:0402ac00fe0200004e
:020000040000fa
:0402b000fe0200004a
:020000040000fa
:0402b400fe02000046
:020000040000fa
:0402b800fe02000042
:020000040000fa
:0402bc00fe0200003e
:020000040000fa
:0402c000fe0200003a
:020000040000fa
:0402c400fe02000036
:020000040000fa
:0402c800fe02000032
:020000040000fa
:0402cc00fe0200002e
:020000040000fa
:0402d000fe0200002a
:020000040000fa
:0402d400fe02000026
:020000040000fa
:0402d800fe02000022
:020000040000fa
:0402dc00fe0200001e
:020000040000fa
:0402e000fe0200001a
:020000040000fa
:0402e400fe02000016
:020000040000fa
:0402e800fe02000012
:020000040000fa
:0402ec00fe0200000e
:020000040000fa
:0402f000fe0200000a
:020000040000fa
:0402f400fe02000006
:020000040000fa
:0402f800fe02000002
:020000040000fa
:0402fc00fe020000fe
:020000040000fa
:04030000fe020000f9
:020000040000fa
:04030400fe020000f5
:020000040000fa
:04030800fe020000f1
:020000040000fa
:04030c00fe020000ed
:020000040000fa
:04031000fe020000e9
:020000040000fa
:04031400fe020000e5
:020000040000fa
:04031800fe020000e1
:020000040000fa
:04031c00fe020000dd
:020000040000fa
:04032000fe020000d9
:020000040000fa
:04032400fe020000d5
:020000040000fa
:04032800fe020000d1
:020000040000fa
:04032c00fe020000cd
:020000040000fa
:04033000fe020000c9
:020000040000fa
:04033400fe020000c5
:020000040000fa
:04033800fe020000c1
:020000040000fa
:04033c00fe020000bd
:020000040000fa
:04034000fe020000b9
:020000040000fa
:04034400fe020000b5
:020000040000fa
:04034800fe020000b1
:020000040000fa
:04034c00fe020000ad
:020000040000fa
:04035000fe020000a9
:020000040000fa
:100400000f8020000eff20000e0188000000000079
:10041000000020000000e000020032000001200087
:100420002002880014000700760007000000e000aa
:1004300003003a0000002000010020000200370005
:100440000000200001002000810f70000100320038
:1004500014000700000020000000e000020032004d
:100460000000020000000000480902000000000037
:100470000040da000000fe004440a9000000200017
:100480000000e0000300320000002000a00188000e
:100490004440a800000006008a1f78008b1f7800e7
:1004a0000000060091018800800478000000eb0045
:1004b0001a003700e284440032a0b4009905ba0063
:1004c000e284440032a0b4009906ba00e2844400f9
:1004d00032a0b4000006eb00476fde00fd07b2005b
:1004e000636ce10003003a00ebff07000000eb0043
:1004f0000a003700606ce10004003a00005deb0088
:100500008b05e900fdff3e00040037006168e10053
:10051000010032000086eb000b00070019c7ba008b
:100520001905ba000e04e00003003a000a00e000da
:10053000e0ff3a0000000600fe07b2009e018800be
:100540008a047800f5ff3700395dba008b05e900b1
:100550000c003200295dba008b05e900080032006a
:100560000c00e00003003a00e284440032a0b40032
:10057000f5ff370019ddba008b05e900faff3a00f4
:100580008904e800e184440032a0b40000000600c1
:10059000801f78000000fa00601680000000a200b2
:1005a000601688008460a9000080fa004f0078007f
:1005b00000400600801f78000000fa0060168000ee
:1005c0000010a2006016880084e0a9000080fa00f4
:1005d0004f00780000400600801f78000000fa00fd
:1005e000601680000020a200601688008500a90027
:1005f0000080fa004f007800004006000040da005a
:100600000000fe0000000500889fbe008a9fbe001b
:100610008c1f7800970007009e00330003866c0053
:100620006450e1002e0032006420e100330032000b
:100630006150e1002f0032006120e1003100320002
:1006400085855500eb07b000090020000804200054
:10065000050037000804440089844c000a0031007a
:100660000603430087834b000001530081815b0038
:10067000f8ff33000203be000800a0000804440095
:1006800089844c00f6ff3900c639dd008301730010
:1006900001003200130020008904d1000884d30037
:1006a0000998a300050032000800a7000300a0007d
:1006b0008904d1000884d3008b05e8008904d100a7
:1006c0000884d3000001eb000281d2002e00070055
:1006d00001f0a1000cf0a70001f0a00076003700a7
:1006e0006420e100780032000801be000200be0074
:1006f000f7ff37006120e100730032006000b800ae
:10070000f3ff37000000200001f82700f0ff37005a
:100710000001be00420007000470a70003f0a10022
:1007200003f8a30013003a006509b100100032007d
:10073000090035006928e1000200350001002800a9
:100740000000050000004000818048008502e900ab
:10075000fcff3a0000000600f88f4200050035005b
:100760008100d1000080d3008502e800fcff3a0040
:10077000000006008000eb00000005004f89de004d
:1007800082017800870037008100200061805500d9
:100790000b003d000b00200061fe2f000100e10076
:1007a0001d00340082817100610164008904d10060
:1007b0000884d3000000e800faff3a00710020002e
:1007c0006100640003007000020060000900320054
:1007d00061044400e0844c000988a5000500320053
:1007e0008b05e8006808e10002003a008904d100a6
:1007f0000884d300f20f20000258e10005003d00fc
:10080000c75ddd00f907b200898075000800780037
:10081000000006000bf827008b00780000000500a0
:10082000c70ade00f107b200f50fb200080032007f
:10083000e1cf4200020032000170a0002400050058
:10084000810f70000100320004080500440005001b
:10085000810f700002003a00140005008502e900d3
:100860000000400081c04800fcff3b000170a00078
:10087000240005000004be00e9ff07000003be00dd
:100880000405be000200be00e5ff0700844f7500ae
:10089000000006000200be006450e10005003600c2
:1008a0006420e100020036000968a30001003a005c
:1008b0000800be000160a0004f0678004f05be0092
:1008c0004f04be0000000600f0ff2f00f1ff2700dc
:1008d000f9ff3700889fbe008a9fbe008c1f7800fa
:1008e000e4ff0700ebff330003866c006450e10077
:1008f000240032006420e100270032006150e10052
:10090000220032006120e100210032008b8542008c
:10091000eb07b1000134b800003ab8000804420007
:1009200089844a00013ab8000030b800888040004d
:1009300009014a00040033000000400081804800a3
:10094000020149008b05e900c909dd00830170003f
:100950000100320013002000c814de004814dd003e
:100960004709de001200b200c808de0008847000eb
:1009700085ff070001f0a1000cf0a70001f0a00026
:10098000cdff37006120e100cfff32000801be003b
:100990000200be00f7ff37006150e100fcff3a00a3
:1009a000c9ff3700881f7800030478000300e000c7
:1009b00007003d0060001000e08018006001190091
:1009c000e081190002003b0001f02d000300370018
:1009d0000400070008f0a70001f0a0004f04780011
:1009e00000000600889fbe008a9fbe000082700043
:1009f0000402710004827100260032000004be006f
:100a00000200be006011b8006b09200095022000b2
:100a10000182cf000a0039000541b1000082cf00f9
:100a2000070039000541b1000982cf0004003900f8
:100a30000541b1000882cf00010039000541b10035
:100a400005425200120032000a003b008281710010
:100a5000610164008100d1000080d3008984d3004b
:100a60000884d3008b05e8000442e800f7ff3a0051
:100a7000070037000804440089844c000000480047
:100a8000818048008b05e9000442e900f9ff3a0043
:100a90003dff07004f05be004f04be0000000600ea
:020000040000fa
:100aa0000e00fa00889fbe0040479800310798006a
:100ab0004207980053079800444f9800ce48900092
:100ac00000c4b30080cf500002003a002000200094
:100ad000000f78004e489000e84f500002003a00a6
:100ae00010002000000f78004e489000e14f5000a9
:100af00002003a000000eb00000f78004e4090002a
:100b00000080fb00e10f500031003200e20f500086
:100b10005c0032000000e00087003a0005e1a90017
:100b20000421a90004c1a9001e007800004078003b
:100b3000634060000080fb00630060004400dd0053
:100b400022088000f1fc2f0081006100010070008c
:100b5000200888000268290083a924004e00900024
:100b6000de0090005bff07000004be004e489000ce
:100b70000080fb00cf80de0000ff07000001be0008
:100b80000800be00a0fe0700e1fe0700000078009c
:100b90000000e900100798009e00900011088800ee
:100ba0004e4090000080fb00000888009460a80080
:100bb0008460a90021058000f0ff2800008060000b
:100bc00000c0a0002005880005e1a8005a003700f9
:100bd00011e1a9001021a90010c1a9001e00780090
:100be00000407800634060000080fb00630060000c
:100bf0004400dd0082088000f1fc2f0081006100cc
:100c000001007000800888000268290083a9240080
:100c10004e009000de0090002eff07000004be0092
:100c20004e4890000080fb00cf80de00d3fe07001e
:100c30000001be000800be0073fe0700b4fe0700fe
:100c4000000078000000e900100798009e00900066
:100c5000610888004e4090000080fb00300888004a
:100c600094e0a80084e0a90031058000f0ff28008e
:100c70000080600000d0a0003005880011e1a800cd
:100c80002d00370013e1a9001221a90012c1a9000b
:100c90001e00780000407800634060000080fb0088
:100ca000630060004400dd0092088000f1fc2f002a
:100cb000810061000100700090088800026829002e
:100cc00083a924004e009000de00900001ff070081
:100cd0000004be004e4890000080fb00cf80de0084
:100ce000a6fe07000001be000800be0046fe070089
:100cf00087fe0700000078000000e9001007980058
:100d00009e009000710888004e4090000080fb001b
:100d1000500888009500a8008500a90041058000c2
:100d200080ff2f00008060003000b3004005880085
:100d300013e1a800000000004f04be000080fa008c
:100d4000000006000a00fa002047980021079800da
:100d500032079800034f98008e48900000c4b300fb
:100d600080cf500002003a0020002000000f7800e1
:100d70000e489000e84f500002003a00100020009a
:100d8000000f78000e489000e14f500002003a003a
:100d90000000eb00000f78002e4090000080fb0068
:100da000e10f500003003200e20f50002400320037
:100db0004700370011e1a9001021a800401680006b
:100dc00000f0a000401688003134800000fe2f00a3
:100dd00000806000f000b300303488001e0078000e
:100de00000407800634060000080fb00630060000a
:100df0004400dd0082088000f1fc2f0081006100ca
:100e00000100700080088800be0090006108880022
:100e10002e4090000080fb003008880094e0a8007d
:100e200084e0a90031058000f0ff28000080600008
:100e300000d0a0003005880011e1a8002400370090
:100e400013e1a9001221a8004016800000e0a000d4
:100e50004016880031348000f00f2e008080600042
:100e600000f0200001007000303488001e0078007f
:100e700000407800634060000080fb006300600079
:100e80004400dd0092088000f1fc2f008100610029
:100e90000100700090088800be0090007108880072
:100ea0002e4090000080fb00500888009500a800ac
:100eb0008500a9004105800080ff2f0000806000b0
:100ec0003000b3004005880013e1a80000000000d6
:100ed0000080fa00000006000e00fa00889fbe00a5
:100ee0004047980031079800420798005307980040
:100ef000444f9800ce48900000c4b30080cf50000b
:100f000002003a0020002000000f78004e489000b8
:100f1000e84f500002003a0010002000000f780057
:100f20004e489000e14f500002003a000000eb00f4
:100f3000000f78004e4090000080fb00e10f500051
:100f400003003200e20f5000360032006b00370021
:100f500011e1a9001021a90010c1a80040168000cd
:100f600000f0a000401688003134800000fe2f0001
:100f700000806000f000b300303488001e0078006c
:100f800000407800634060000080fb006300600068
:100f90004400dd0082088000f1fc2f008100610028
:100fa00001007000800888000268290083a92400dd
:100fb0004e009000de00900046fe07000004be00d8
:100fc0004e4890000080fb00cf80de00ebfd070064
:100fd0000001be000800be008bfd0700ccfd07002d
:100fe000000078000000e900100798009e009000c3
:100ff000610888004e4090000080fb0030088800a7
:1010000094e0a80084e0a90031058000f0ff2800ea
:101010000080600000d0a0003005880011e1a80029
:101020003600370013e1a9001221a90012c1a8005f
:101030004016800000e0a000401688003134800097
:10104000f00f2e008080600000f020000100700092
:10105000303488001e007800004078006340600053
:101060000080fb00630060004400dd009208800007
:10107000f1fc2f00810061000100700090088800e1
:101080000268290083a924004e009000de00900031
:1010900010fe07000004be004e4890000080fb00d8
:1010a000cf80de00b5fd07000001be000800be00d5
:1010b00055fd070096fd0700000078000000e900dc
:1010c000100798009e009000710888004e40900024
:1010d0000080fb00500888009500a8008500a9004a
:1010e0004105800080ff2f00008060003000b300c9
:1010f0004005880013e1a800000000004f04be0076
:101100000080fa00000006000200fa00004f78009c
:101110001e80fb00e10f50001d003200e20f500066
:10112000390032000000e00057003a0011e1a90048
:1011300013e1a9001061a8001021a90010c1a900a5
:1011400081088000f0fc2f00008060000040a000bb
:10115000800888000621ef000a21ef00f00520003a
:101160007008880000e12500600888009500a8004c
:101170008500a9004105800080ff2f0000806000ed
:101180003000b3004005880011e1a8003e003700a0
:1011900011e1a90013e1a9001061a8001021a80025
:1011a00081088000f0fc2f0000806000800888002b
:1011b0004016800000f0a000401688003134800006
:1011c00000fe2f0000806000f000b3003034880083
:1011d0000621ef000a21ef000e21ef005000200051
:1011e000600888009500a8008500a90041058000de
:1011f00080ff2f00008060003000b30040058800b1
:1012000011e1a8002000370011e1a90013e1a900b5
:101210001061a8001021a90010c1a8008108800059
:10122000f0fc2f00008060000050a00080088800c3
:101230004016800000f0a000401688003134800085
:1012400000fe2f0000806000f000b3003034880002
:101250000621ef000a21ef000e21ef0010f420001c
:10126000600888009500a8008500a900410580005d
:1012700080ff2f00008060003000b3004005880030
:1012800011e1a800000000000080fa000000060044
:101290000400fa00000f7800110798006019800020
:1012a000c001b300601988004116800080ff2f0044
:1012b00000806000401688006116800080ff2f00cb
:1012c000008060006016880020c0b3008eff070019
:0412d000ffff3700e5
:020000040000fa
:0200000401f009
:04000000ffffff00ff
:020000040000fa
:0200000401f009
:04000800ffffff00f7
:020000040000fa
:0200000401f009
:04000c0002000000ee
:020000040000fa
:0200000401f009
:04001000a500000047
:020000040000fa
:0200000401f009
:040014005f00000089
:020000040000fa
:0200000401f009
:04001800f7000000ed
:020000040000fa
:0200000401f009
:04001c00dfff000002
:00000001FF
