:020000040000fa
:080000000002040000000000f2
:020000040000fa
:04000800c80200002a
:020000040000fa
:04000c00c802000026
:020000040000fa
:04001000c802000022
:020000040000fa
:04001400c80200001e
:020000040000fa
:04001800c80200001a
:020000040000fa
:04001c00c802000016
:020000040000fa
:04002000c802000012
:020000040000fa
:04002400c80200000e
:020000040000fa
:04002800c80200000a
:020000040000fa
:04002c00c802000006
:020000040000fa
:04003000c802000002
:020000040000fa
:04003400c8020000fe
:020000040000fa
:04003800c8020000fa
:020000040000fa
:04003c00c8020000f6
:020000040000fa
:04004000c8020000f2
:020000040000fa
:04004400c8020000ee
:020000040000fa
:04004800c8020000ea
:020000040000fa
:04004c00c8020000e6
:020000040000fa
:04005000c8020000e2
:020000040000fa
:04005400c8020000de
:020000040000fa
:04005800c8020000da
:020000040000fa
:04005c00c8020000d6
:020000040000fa
:04006000c8020000d2
:020000040000fa
:04006400c8020000ce
:020000040000fa
:04006800c8020000ca
:020000040000fa
:04006c00c8020000c6
:020000040000fa
:04007000c8020000c2
:020000040000fa
:04007400c8020000be
:020000040000fa
:04007800c8020000ba
:020000040000fa
:04007c00c8020000b6
:020000040000fa
:04008000c8020000b2
:020000040000fa
:04008400c8020000ae
:020000040000fa
:04008800c8020000aa
:020000040000fa
:04008c00c8020000a6
:020000040000fa
:04009000c8020000a2
:020000040000fa
:04009400c80200009e
:020000040000fa
:04009800c80200009a
:020000040000fa
:04009c00c802000096
:020000040000fa
:0400a000c802000092
:020000040000fa
:0400a400c80200008e
:020000040000fa
:0400a800c80200008a
:020000040000fa
:0400ac00c802000086
:020000040000fa
:0400b000c802000082
:020000040000fa
:0400b400c80200007e
:020000040000fa
:0400b800c80200007a
:020000040000fa
:0400bc00c802000076
:020000040000fa
:0400c000c802000072
:020000040000fa
:0400c400c80200006e
:020000040000fa
:0400c800c80200006a
:020000040000fa
:0400cc00c802000066
:020000040000fa
:0400d000c802000062
:020000040000fa
:0400d400c80200005e
:020000040000fa
:0400d800c80200005a
:020000040000fa
:0400dc00c802000056
:020000040000fa
:0400e000c802000052
:020000040000fa
:0400e400c80200004e
:020000040000fa
:0400e800c80200004a
:020000040000fa
:0400ec00c802000046
:020000040000fa
:0400f000c802000042
:020000040000fa
:0400f400c80200003e
:020000040000fa
:0400f800c80200003a
:020000040000fa
:0400fc00c802000036
:020000040000fa
:04010000c802000031
:020000040000fa
:04010400c80200002d
:020000040000fa
:04010800c802000029
:020000040000fa
:04010c00c802000025
:020000040000fa
:04011000c802000021
:020000040000fa
:04011400c80200001d
:020000040000fa
:04011800c802000019
:020000040000fa
:04011c00c802000015
:020000040000fa
:04012000c802000011
:020000040000fa
:04012400c80200000d
:020000040000fa
:04012800c802000009
:020000040000fa
:04012c00c802000005
:020000040000fa
:04013000c802000001
:020000040000fa
:04013400c8020000fd
:020000040000fa
:04013800c8020000f9
:020000040000fa
:04013c00c8020000f5
:020000040000fa
:04014000c8020000f1
:020000040000fa
:04014400c8020000ed
:020000040000fa
:04014800c8020000e9
:020000040000fa
:04014c00c8020000e5
:020000040000fa
:04015000c8020000e1
:020000040000fa
:04020800c802000028
:020000040000fa
:04020c00c802000024
:020000040000fa
:04021000c802000020
:020000040000fa
:04021400c80200001c
:020000040000fa
:04021800c802000018
:020000040000fa
:04021c00c802000014
:020000040000fa
:04022000c802000010
:020000040000fa
:04022400c80200000c
:020000040000fa
:04022800c802000008
:020000040000fa
:04022c00c802000004
:020000040000fa
:04023000c802000000
:020000040000fa
:04023400c8020000fc
:020000040000fa
:04023800c8020000f8
:020000040000fa
:04023c00c8020000f4
:020000040000fa
:04024000c8020000f0
:020000040000fa
:04024400c8020000ec
:020000040000fa
:04024800c8020000e8
:020000040000fa
:04024c00c8020000e4
:020000040000fa
:04025000c8020000e0
:020000040000fa
:04025400c8020000dc
:020000040000fa
:04025800c8020000d8
:020000040000fa
:04025c00c8020000d4
:020000040000fa
:04026000c8020000d0
:020000040000fa
:04026400c8020000cc
:020000040000fa
:04026800c8020000c8
:020000040000fa
:04026c00c8020000c4
:020000040000fa
:04027000c8020000c0
:020000040000fa
:04027400c8020000bc
:020000040000fa
:04027800c8020000b8
:020000040000fa
:04027c00c8020000b4
:020000040000fa
:04028000c8020000b0
:020000040000fa
:04028400c8020000ac
:020000040000fa
:04028800c8020000a8
:020000040000fa
:04028c00c8020000a4
:020000040000fa
:04029000c8020000a0
:020000040000fa
:04029400c80200009c
:020000040000fa
:04029800c802000098
:020000040000fa
:04029c00c802000094
:020000040000fa
:0402a000c802000090
:020000040000fa
:0402a400c80200008c
:020000040000fa
:0402a800c802000088
:020000040000fa
:0402ac00c802000084
:020000040000fa
:0402b000c802000080
:020000040000fa
:0402b400c80200007c
:020000040000fa
:0402b800c802000078
:020000040000fa
:0402bc00c802000074
:020000040000fa
:0402c000c802000070
:020000040000fa
:0402c400c80200006c
:020000040000fa
:0402c800c802000068
:020000040000fa
:0402cc00c802000064
:020000040000fa
:0402d000c802000060
:020000040000fa
:0402d400c80200005c
:020000040000fa
:0402d800c802000058
:020000040000fa
:0402dc00c802000054
:020000040000fa
:0402e000c802000050
:020000040000fa
:0402e400c80200004c
:020000040000fa
:0402e800c802000048
:020000040000fa
:0402ec00c802000044
:020000040000fa
:0402f000c802000040
:020000040000fa
:0402f400c80200003c
:020000040000fa
:0402f800c802000038
:020000040000fa
:0402fc00c802000034
:020000040000fa
:04030000c80200002f
:020000040000fa
:04030400c80200002b
:020000040000fa
:04030800c802000027
:020000040000fa
:04030c00c802000023
:020000040000fa
:04031000c80200001f
:020000040000fa
:04031400c80200001b
:020000040000fa
:04031800c802000017
:020000040000fa
:04031c00c802000013
:020000040000fa
:04032000c80200000f
:020000040000fa
:04032400c80200000b
:020000040000fa
:04032800c802000007
:020000040000fa
:04032c00c802000003
:020000040000fa
:04033000c8020000ff
:020000040000fa
:04033400c8020000fb
:020000040000fa
:04033800c8020000f7
:020000040000fa
:04033c00c8020000f3
:020000040000fa
:04034000c8020000ef
:020000040000fa
:04034400c8020000eb
:020000040000fa
:04034800c8020000e7
:020000040000fa
:04034c00c8020000e3
:020000040000fa
:04035000c8020000df
:020000040000fa
:100400004f8020000eff20000e0188000000000039
:10041000000020000000e000020032000001200087
:1004200020028800140007005b0007000000e000c5
:1004300003003a0040832000010020000200370042
:100440000000200001002000810f70000100320038
:1004500014000700000020000000e000020032004d
:100460000000020000000000ea0702000000000097
:100470000040da000000fe004440a9000002200015
:100480000000e0000300320000002000a00188000e
:100490004440a800000006008a1f78008b1f7800e7
:1004a0000000060091018800800478000000eb0045
:1004b0001a003700e284440032a0b4009905ba0063
:1004c000e284440032a0b4009906ba00e2844400f9
:1004d00032a0b4000006eb00476fde00fd07b2005b
:1004e000636ce10003003a00ebff07000000eb0043
:1004f0000a003700606ce10004003a00005deb0088
:100500008b05e900fdff3e00040037006168e10053
:10051000010032000086eb000b00070019c7ba008b
:100520001905ba000e04e00003003a000a00e000da
:10053000e0ff3a0000000600fe07b2009e018800be
:100540008a047800f5ff3700395dba008b05e900b1
:100550000c003200295dba008b05e900080032006a
:100560000c00e00003003a00e284440032a0b40032
:10057000f5ff370019ddba008b05e900faff3a00f4
:100580008904e800e184440032a0b40000000600c1
:0c0590000040da000000fe000000050042
:020000040000fa
:10059c0054650000636c0000612000005075000081
:1005ac006c73000061640000612d00003e000000cf
:1005bc0037380000392f0000343500003658000061
:1005cc0031320000332d0000473000003d2b00007d
:020000040000fa
:1005dc000200fa00004f78001e80fb0061006000f2
:1005ec00004078000004e00002003200cd82a80038
:1005fc0001003700cd82a9001e80fb006200600064
:10060c000000e00002003200cda2a800010037007b
:10061c00cda2a9001e80fb00640060000000e00079
:10062c0002003200cdc2a80001003700cdc2a900e3
:10063c001e80fb00680060000000e0000200320039
:10064c00cde2a80001003700cde2a9000080fa003d
:10065c00000006000200fa00004f7800cd42a9000d
:10066c00cd42a8001e407800d9ff0700007122007f
:10067c00010020006b020700cd42a9000080fa00a7
:10068c00000006000000fa0041168000f03f200038
:10069c00008060004016880061168000f03f20004a
:1006ac00008060006016880030c0b300e9ff0700ce
:1006bc0030c0b300e7ff070030c0b300e5ff070010
:1006cc0020c0b300e3ff070020c0b300e1ff070028
:1006dc0080c0b300dfff07000040eb00ddff070028
:1006ec0080c0b300dbff07000040eb00d9ff070020
:1006fc0010c0b300d7ff07000040eb00d5ff070088
:10070c00c0c0b300d3ff07000080fa000000060051
:10071c000400fa002047980031479800cd62a900e8
:10072c003e4090000080fb00e20f500017003200aa
:10073c00e20f500003003c00e10f500006003200b5
:10074c0039003700e30f50001d003200e40f500059
:10075c002800320034003700ae40900000c8b300cf
:10076c0000cf40002e4090000080fb000008b0003d
:10077c004480de00104798001e409000b5ff070033
:10078c001e407800b3ff070027003700ae409000f2
:10079c0000ccb30000cf40002e4090000080fb0046
:1007ac00000cb0004480de00104798001e40900002
:1007bc00a8ff07001e407800a6ff07001a003700ac
:1007cc00ae40900040c9b30000cf40002e409000d6
:1007dc000080fb004009b0004480de001047980008
:1007ec001e4090009bff07001e40780099ff0700f9
:1007fc000d003700ae40900040cdb30000cf40005c
:10080c002e4090000080fb00400db0004480de00c4
:10081c00104798001e4090008eff07001e40780085
:10082c008cff0700000000000080fa0000000600aa
:10083c000400fa00204798002e4090000000fb00b6
:10084c004480de0000407800004f7800ae409000fd
:10085c0011479800cd62a8001e4078007dff07006c
:10086c001e4090007bff07000080fa00000006008d
:10087c000400fa00100798009e009000010f780009
:10088c00040037001e007800104078001e0fe800ae
:10089c00e7ff07001e007800104078000004e0001d
:1008ac00f8ff3a000080fa00000006000000fa0091
:1008bc00cd62a9000040eb0066ff070010c0b3003a
:1008cc0064ff07000080fa00000006000000fa0038
:1008dc00cd62a9000040eb005eff070020c0b30012
:1008ec005cff07000080fa00000006000a00fa0016
:1008fc00204798003147980042479800534798008a
:10090c006447980075479800064f9800174f980059
:10091c002e4090000080fb00e20f5000620032007d
:10092c00e30f5000c8003200e10f500024013a00e0
:10093c0040c0b30047ff07000040eb0045ff070035
:10094c00cd62a8003e4090000080fb004400de0019
:10095c00004f7800be409000114798001e40780070
:10096c003cff07001e4090003aff07004e409000ed
:10097c000080fb004400de00004f7800ce40900069
:10098c00114798001e40780032ff07001e4090006f
:10099c0030ff07005e4090000080fb004400de004a
:1009ac00004f7800de409000114798001e40780000
:1009bc0028ff07001e40900026ff07006e409000a5
:1009cc000080fb004400de00004f7800ee409000f9
:1009dc00114798001e4078001eff07001e40900033
:1009ec001cff07007e4090000080fb004400de00ee
:1009fc00004f7800fe409000114798001e40780090
:100a0c0014ff07001e40900012ff07000e489000d4
:100a1c000080fb004400de00004f78008e48900000
:100a2c00114798001e4078000aff07001e409000f6
:100a3c0008ff07001e4890000080fb004400de0009
:100a4c00004f78009e489000114798001e40780097
:100a5c0000ff07001e409000fefe07000ef89700f6
:100a6c000080fb004400de00004f78008ef89700f9
:100a7c00114798001e407800f6fe07001e409000bb
:100a8c00f4fe0700cd62a9000040eb00f1fe070068
:100a9c0010c0b300effe070000122a007100200006
:100aac0060010700c600370040c0b300e9fe070034
:100abc0080c0b300e7fe0700cd62a8003e40900066
:100acc000080fb004400de00004f7800be40900028
:100adc00114798001e407800defe07001e40900073
:100aec00dcfe07004e4090000080fb004400de005e
:100afc00004f7800ce409000114798001e407800bf
:100b0c00d4fe07001e409000d2fe07004e4090001d
:100b1c000080fb004400de00004f7800ce409000c7
:100b2c00114798001e407800cafe07001e40900036
:100b3c00c8fe07005e4090000080fb004400de0011
:100b4c00004f7800de409000114798001e4078005e
:100b5c00c0fe07001e409000befe07006e409000d5
:100b6c000080fb004400de00004f7800ee40900057
:100b7c00114798001e407800b6fe07001e409000fa
:100b8c00b4fe07007e4090000080fb004400de00b5
:100b9c00004f7800fe409000114798001e407800ee
:100bac00acfe07001e409000aafe07000e48900005
:100bbc000080fb004400de00004f78008e4890005f
:100bcc00114798001e407800a2fe07001e409000be
:100bdc00a0fe07001e4890000080fb004400de00d1
:100bec00004f78009e489000114798001e407800f6
:100bfc0098fe07001e40900096fe07000ef8970026
:100c0c000080fb004400de00004f78008ef8970057
:100c1c00114798001e4078008efe07001e40900081
:100c2c008cfe0700cd62a9000040eb0089fe070096
:100c3c0010c0b30087fe070000122a0071002000cc
:100c4c00f80007005e00370040c0b30081fe0700cb
:100c5c0000c0eb007ffe0700cd62a8003e40900074
:100c6c000080fb004400de00004f7800be40900086
:100c7c00114798001e40780076fe07001e40900039
:100c8c0074fe07004e4090000080fb004400de0024
:100c9c00004f7800ce409000114798001e4078001d
:100cac006cfe07001e4090006afe07005e4090003c
:100cbc000080fb004400de00004f7800de40900016
:100ccc00114798001e40780062fe07001e409000fd
:100cdc0060fe07006e4090000080fb004400de00c8
:100cec00004f7800ee409000114798001e407800ad
:100cfc0058fe07001e40900056fe07007e409000f4
:100d0c000080fb004400de00004f7800fe409000a5
:100d1c00114798001e4078004efe07001e409000c0
:100d2c004cfe07000e4890000080fb004400de00e3
:100d3c00004f78008e489000114798001e407800b4
:100d4c0044fe07001e40900042fe07001e48900023
:100d5c000080fb004400de00004f78009e489000ad
:100d6c00114798001e4078003afe07001e40900084
:100d7c0038fe07000ef897000080fb004400de00f0
:100d8c00004f78008ef89700114798001e407800ad
:100d9c0030fe07001e4090002efe0700cd62a90019
:100dac000040eb002bfe070010c0b30029fe07002b
:100dbc0000122a00710020009a00070000000000b9
:100dcc000080fa00000006000200fa00004f7800d4
:100ddc00cd62a8000040eb001efe07001e40e9009b
:100dec001cfe0700cd62a9000080fa00000006007e
:100dfc000000fa00c802a900c822a900c842a90034
:100e0c00c862a900c882a800c8a2a800c8c2a800cd
:100e1c00c8e2a8000080fa00000006000400fa00f6
:100e2c000040eb00004f780054003700cc02a800c3
:100e3c00cc22a800cc42a800cc62a8001e80fb00eb
:100e4c00e10f50000c003200e10f500003003c0099
:100e5c000000e000060032000d003700e20f5000e9
:100e6c0007003200e30f5000070032000800370083
:100e7c00cc02a90006003700cc22a90004003700e0
:100e8c00cc42a90002003700cc62a900000000008f
:100e9c00409c2000010020006200070050168000da
:100eac004700de00614060000080fb004300dd0075
:100ebc0080407800501680004600de0061406000e3
:100ecc000080fb004200dd000040780080c0700014
:100edc00501680004500de00614060000080fb0081
:100eec00000040000040780080c070005016800068
:100efc004400de006140600000c070002047980094
:100f0c0000c0eb00104798002e4090000080fb00c2
:100f1c00eb0f50000f003200eb0f500003003c00b1
:100f2c00e70f50000e00320010003700ed0f50009c
:100f3c0005003200ee0f50000c003a000040eb00b0
:100f4c00104798000900370010c0b30010479800f4
:100f5c000600370020c0b30010479800030037008c
:100f6c0030c0b30010479800000000001e409000f5
:100f7c00e14f400005003a001e4fe8001e4078008b
:100f8c00e34f5000a9ff36000100370000000000bd
:100f9c001e409000e14f400002003a0000c0eb0000
:100fac00070037009e80fb001e4090000000fb00f5
:100fbc00c208dd0000804000e12d2800614078006f
:100fcc000080fa00000006000400fa00000f780010
:100fdc0011079800abfd070085ff070001003700e3
:100fec00000000008dff070000e8b70011c0b3003f
:100ffc000040eb00c6fd070000c8bf00e14f4000f9
:10100c00f7ff320000362e006101200005000700ba
:10101c00e02c280016fe070000c8bf0004fe0700e5
:04102c00f0ff37009a
:020000040000fa
:10103000f03fb1000180b10006003500ee03090069
:1010400000000000403fb1000180b100fbff3d0007
:101050001000b000203fb000020035000080090001
:08106000000000000000060082
:020000040000fa
:101068000008000002000000000000000208000064
:0c1078000200000000000000000000006a
:020000040000fa
:0200000401f009
:04000000ffff0000fe
:020000040000fa
:0200000401f009
:04000800ffff0000f6
:020000040000fa
:0200000401f009
:04000c0002000000ee
:020000040000fa
:0200000401f009
:04001000a500000047
:020000040000fa
:0200000401f009
:040014005f00000089
:020000040000fa
:0200000401f009
:04001800f7000000ed
:020000040000fa
:0200000401f009
:04001c00dfff000002
:00000001FF
