:020000040000fa
:080000000002040000000000f2
:020000040000fa
:04000800d002000022
:020000040000fa
:04000c00d00200001e
:020000040000fa
:04001000d00200001a
:020000040000fa
:04001400d002000016
:020000040000fa
:04001800d002000012
:020000040000fa
:04001c00d00200000e
:020000040000fa
:04002000d00200000a
:020000040000fa
:04002400d002000006
:020000040000fa
:04002800d002000002
:020000040000fa
:04002c00d0020000fe
:020000040000fa
:04003000d0020000fa
:020000040000fa
:04003400d0020000f6
:020000040000fa
:04003800d0020000f2
:020000040000fa
:04003c00d0020000ee
:020000040000fa
:04004000d0020000ea
:020000040000fa
:04004400d0020000e6
:020000040000fa
:04004800d0020000e2
:020000040000fa
:04004c00d0020000de
:020000040000fa
:04005000d0020000da
:020000040000fa
:04005400d0020000d6
:020000040000fa
:04005800d0020000d2
:020000040000fa
:04005c00d0020000ce
:020000040000fa
:04006000d0020000ca
:020000040000fa
:04006400d0020000c6
:020000040000fa
:04006800d0020000c2
:020000040000fa
:04006c00d0020000be
:020000040000fa
:04007000d0020000ba
:020000040000fa
:04007400d0020000b6
:020000040000fa
:04007800d0020000b2
:020000040000fa
:04007c00d0020000ae
:020000040000fa
:04008000d0020000aa
:020000040000fa
:04008400d0020000a6
:020000040000fa
:04008800d0020000a2
:020000040000fa
:04008c00d00200009e
:020000040000fa
:04009000d00200009a
:020000040000fa
:04009400d002000096
:020000040000fa
:04009800d002000092
:020000040000fa
:04009c00d00200008e
:020000040000fa
:0400a000d00200008a
:020000040000fa
:0400a400d002000086
:020000040000fa
:0400a800d002000082
:020000040000fa
:0400ac00d00200007e
:020000040000fa
:0400b000d00200007a
:020000040000fa
:0400b400d002000076
:020000040000fa
:0400b800d002000072
:020000040000fa
:0400bc00d00200006e
:020000040000fa
:0400c000d00200006a
:020000040000fa
:0400c400d002000066
:020000040000fa
:0400c800d002000062
:020000040000fa
:0400cc00d00200005e
:020000040000fa
:0400d000d00200005a
:020000040000fa
:0400d400d002000056
:020000040000fa
:0400d800d002000052
:020000040000fa
:0400dc00d00200004e
:020000040000fa
:0400e000d00200004a
:020000040000fa
:0400e400d002000046
:020000040000fa
:0400e800d002000042
:020000040000fa
:0400ec00d00200003e
:020000040000fa
:0400f000d00200003a
:020000040000fa
:0400f400d002000036
:020000040000fa
:0400f800d002000032
:020000040000fa
:0400fc00d00200002e
:020000040000fa
:04010000d002000029
:020000040000fa
:04010400d002000025
:020000040000fa
:04010800d002000021
:020000040000fa
:04010c00d00200001d
:020000040000fa
:04011000d002000019
:020000040000fa
:04011400d002000015
:020000040000fa
:04011800d002000011
:020000040000fa
:04011c00d00200000d
:020000040000fa
:04012000d002000009
:020000040000fa
:04012400d002000005
:020000040000fa
:04012800d002000001
:020000040000fa
:04012c00d0020000fd
:020000040000fa
:04013000d0020000f9
:020000040000fa
:04013400d0020000f5
:020000040000fa
:04013800d0020000f1
:020000040000fa
:04013c00d0020000ed
:020000040000fa
:04014000d0020000e9
:020000040000fa
:04014400d0020000e5
:020000040000fa
:04014800d0020000e1
:020000040000fa
:04014c00d0020000dd
:020000040000fa
:04015000d0020000d9
:020000040000fa
:04020800d002000020
:020000040000fa
:04020c00d00200001c
:020000040000fa
:04021000d002000018
:020000040000fa
:04021400d002000014
:020000040000fa
:04021800d002000010
:020000040000fa
:04021c00d00200000c
:020000040000fa
:04022000d002000008
:020000040000fa
:04022400d002000004
:020000040000fa
:04022800d002000000
:020000040000fa
:04022c00d0020000fc
:020000040000fa
:04023000d0020000f8
:020000040000fa
:04023400d0020000f4
:020000040000fa
:04023800d0020000f0
:020000040000fa
:04023c00d0020000ec
:020000040000fa
:04024000d0020000e8
:020000040000fa
:04024400d0020000e4
:020000040000fa
:04024800d0020000e0
:020000040000fa
:04024c00d0020000dc
:020000040000fa
:04025000d0020000d8
:020000040000fa
:04025400d0020000d4
:020000040000fa
:04025800d0020000d0
:020000040000fa
:04025c00d0020000cc
:020000040000fa
:04026000d0020000c8
:020000040000fa
:04026400d0020000c4
:020000040000fa
:04026800d0020000c0
:020000040000fa
:04026c00d0020000bc
:020000040000fa
:04027000d0020000b8
:020000040000fa
:04027400d0020000b4
:020000040000fa
:04027800d0020000b0
:020000040000fa
:04027c00d0020000ac
:020000040000fa
:04028000d0020000a8
:020000040000fa
:04028400d0020000a4
:020000040000fa
:04028800d0020000a0
:020000040000fa
:04028c00d00200009c
:020000040000fa
:04029000d002000098
:020000040000fa
:04029400d002000094
:020000040000fa
:04029800d002000090
:020000040000fa
:04029c00d00200008c
:020000040000fa
:0402a000d002000088
:020000040000fa
:0402a400d002000084
:020000040000fa
:0402a800d002000080
:020000040000fa
:0402ac00d00200007c
:020000040000fa
:0402b000d002000078
:020000040000fa
:0402b400d002000074
:020000040000fa
:0402b800d002000070
:020000040000fa
:0402bc00d00200006c
:020000040000fa
:0402c000d002000068
:020000040000fa
:0402c400d002000064
:020000040000fa
:0402c800d002000060
:020000040000fa
:0402cc00d00200005c
:020000040000fa
:0402d000d002000058
:020000040000fa
:0402d400d002000054
:020000040000fa
:0402d800d002000050
:020000040000fa
:0402dc00d00200004c
:020000040000fa
:0402e000d002000048
:020000040000fa
:0402e400d002000044
:020000040000fa
:0402e800d002000040
:020000040000fa
:0402ec00d00200003c
:020000040000fa
:0402f000d002000038
:020000040000fa
:0402f400d002000034
:020000040000fa
:0402f800d002000030
:020000040000fa
:0402fc00d00200002c
:020000040000fa
:04030000d002000027
:020000040000fa
:04030400d002000023
:020000040000fa
:04030800d00200001f
:020000040000fa
:04030c00d00200001b
:020000040000fa
:04031000d002000017
:020000040000fa
:04031400d002000013
:020000040000fa
:04031800d00200000f
:020000040000fa
:04031c00d00200000b
:020000040000fa
:04032000d002000007
:020000040000fa
:04032400d002000003
:020000040000fa
:04032800d0020000ff
:020000040000fa
:04032c00d0020000fb
:020000040000fa
:04033000d0020000f7
:020000040000fa
:04033400d0020000f3
:020000040000fa
:04033800d0020000ef
:020000040000fa
:04033c00d0020000eb
:020000040000fa
:04034000d0020000e7
:020000040000fa
:04034400d0020000e3
:020000040000fa
:04034800d0020000df
:020000040000fa
:04034c00d0020000db
:020000040000fa
:04035000d0020000d7
:020000040000fa
:10040000ef9320000eff20000e0188000000000086
:10041000000020000000e000020032000001200087
:100420002002880014000700920007000000e0008e
:1004300003003a00a0bb20000100200002003700aa
:100440000000200001002000810f70000100320038
:1004500014000700000020000000e000020032004d
:1004600000000200000000003c0a02000000000042
:100470000040da000000fe004440a900c000200057
:100480000000e0000300320000002000a00188000e
:100490004440a800000006008a1f78008b1f7800e7
:1004a0000000060091018800800478000000eb0045
:1004b0001a003700e284440032a0b4009905ba0063
:1004c000e284440032a0b4009906ba00e2844400f9
:1004d00032a0b4000006eb00476fde00fd07b2005b
:1004e000636ce10003003a00ebff07000000eb0043
:1004f0000a003700606ce10004003a00005deb0088
:100500008b05e900fdff3e00040037006168e10053
:10051000010032000086eb000b00070019c7ba008b
:100520001905ba000e04e00003003a000a00e000da
:10053000e0ff3a0000000600fe07b2009e018800be
:100540008a047800f5ff3700395dba008b05e900b1
:100550000c003200295dba008b05e900080032006a
:100560000c00e00003003a00e284440032a0b40032
:10057000f5ff370019ddba008b05e900faff3a00f4
:100580008904e800e184440032a0b40000000600c1
:10059000000000000000000000000000000000005b
:1005a0000040da000000fe000a00fa0011002000fe
:1005b000b1bf9f00c0bf9f006a80570017030700ac
:1005c0004fb897000080fa00000006000a00fa0009
:1005d00051002000b1bf9f00c0bf9f006a8057003c
:1005e000100307005fb897000080fa0000000600c3
:1005f000889fbe0080047800e04980000000e00091
:1006000004003a000e0007000084eb000000e00048
:1006100008003500e84980000900e00005003200cc
:1006200009004400060007000000e00001003d0052
:100630000084eb00080078004f04be0000000600b4
:10064000800078000100e00003003a000000200074
:10065000e0498800000005000080eb000200200057
:10066000828f500002003e00e14988000000eb004c
:10067000000006000000050003f0a200889fbe00f5
:100680008a9fbe008c1f7800b1000700b8003300bd
:100690006450e1004f0032006420e100520032005b
:1006a00003826c0007003b000905d0000306d00060
:1006b000820f54000c065d00020039000200320077
:1006c00089017800030678008582550004003d000a
:1006d0000003fd008103fd008502ea008b854200d6
:1006e000840f720002003b0060001000e0801800e0
:1006f0006011b8000005eb007a28e1000a0039001b
:1007000006007800c75ddd00f707b200878075003e
:100710002d003700828171000a01780061056000b8
:100720008180d1000080d3008502e900f9ff3b0001
:10073000060440008784480002003b006004140067
:10074000e0841c000988a300070032008a81710040
:1007500082817100610164008904d1000884d300a2
:100760008b05e800170037000978a30013003a0052
:100770000b00e000130034008b05e900080444007e
:1007800089844c000a4474000978a3000d003a00e3
:100790000b00e000070034008b05e900080444006a
:1007a00089844c0001003a000b0020000978a30066
:1007b000f7ff32000001eb00020037008281710078
:1007c0000a017800270007000cf0a70001f0a00044
:1007d000700037006420e10002003a00838f6c0053
:1007e000700033000801be000200be00690037003f
:1007f0000001be00410007000470a70003f0a10043
:1008000003f8a30013003a006509b100100032009c
:10081000090035006928e1000200350001002800c8
:100820000000050000004000818048008502e900ca
:10083000fcff3a0000000600f88f4200050035007a
:100840008100d1000080d3008502e800fcff3a005f
:10085000000006008000eb00000005006011b800f9
:100860009700370081002000618055000b003d009b
:100870000b00200061fe2f000100e1001d0034008c
:1008800082817100610164008904d1000884d30071
:100890000000e800faff3a007100200061006400e7
:1008a000030070000200600009003200610444008f
:1008b000e0844c000988a500050032008b05e800a3
:1008c0006808e10002003a008904d1000884d300de
:1008d000f20f20000258e10005003d00c75ddd0079
:1008e000f907b20089807500080078000000060052
:1008f0000bf827008b00780000000500c70ade0017
:10090000f107b200f50fb20008003200e1cf42005b
:10091000020032000170a00024000500810f700069
:10092000010032000408050044000500810f70003a
:1009300002003a00140005008502e90000004000b2
:1009400081c04800fcff3b000170a00024000500ae
:100950000004be00e9ff07000003be000405be005e
:100960000200be00e5ff0700844f7500000006008e
:100970000200be006450e100050036006420e10082
:10098000020036000968a30001003a000800be001a
:100990000160a0004f0678004f05be004f04be0066
:1009a00000000600f0ff2f00f1ff2700f9ff3700dd
:1009b000889fbe008a9fbe008c1f7800e4ff07005e
:1009c000ebff330003866c006450e100240032002a
:1009d0006420e100270032006150e1002200320073
:1009e0006120e100210032008b854200eb07b1005d
:1009f0000134b800003ab8000804420089844a0073
:100a0000013ab8000030b8008880400009014a006f
:100a100004003300000040008180480002014900ca
:100a20008b05e900c909dd00830170000100320077
:100a300013002000c814de004814dd004709de0062
:100a40001200b200c808de000884700085ff0700ad
:100a500001f0a1000cf0a70001f0a000cdff3700cd
:100a60006120e100cfff32000801be000200be009d
:100a7000f7ff37006150e100fcff3a00c9ff370083
:100a80006022b800060220000000d0008180d20061
:100a90000482d2008582d2000000a000020252002f
:100aa00083825a00030031000202420083824a001e
:100ab0000000a1000603e900f3ff3a000000060071
:100ac000889fbe008a9fbe000082700004027100f1
:100ad00004827100260032000004be000200be0045
:100ae0006011b8006b092000950220000182cf0040
:100af0000a0039000541b1000082cf00070039002b
:100b00000541b1000982cf00040039000541b10060
:100b10000882cf00010039000541b10005425200b2
:100b2000120032000a003b00828171006101640002
:100b30008100d1000080d3008984d3000884d300d1
:100b40008b05e8000442e800f7ff3a000700370091
:100b50000804440089844c0000004800818048005b
:100b60008b05e9000442e900f9ff3a003dff070068
:100b70004f05be004f04be0000000600418d20005e
:100b800000003700889fbe008a1f78000004be0066
:100b9000c900900069009000808f50000600390065
:100ba0000900780059000700800078000080eb0001
:100bb0000100e0001700350008457800490090006a
:100bc00008587800c00498001900780000b8a30005
:100bd00004003a0000a8a30008003200ea4f5400c5
:100be00006003a00090078000d0007008000780038
:100bf0000080eb000100e00006003a0000c0200089
:100c0000190060000200320049009000e0049800e2
:100c10000a80fb004f0578004f04be00000006006c
:100c2000889fbe008a1f7800000478000800e0005a
:100c30000d003a0028922000700544008004eb006b
:100c4000580078000000e00004003200f4ff0700c4
:100c50000000e00001003d008084eb008a0f54009a
:100c6000f7ff3a002500370000002200180060005e
:100c70008004eb0021003200a80490000f00370030
:100c800009015100384090000000fb008900780005
:100c9000a30207000000e00007003c0028009000cd
:100ca0004004980060049800500c98001890a00030
:100cb0008084eb00110037008084440048019000dc
:100cc000828f5400eeff3900280090004004980005
:100cd0009800780002c020000281600001003a0004
:100ce0003800900001e8a300020032006004980080
:100cf00001003700500c98008004eb0009007800d8
:100d00004f0578004f04be0000000600889fbe001b
:100d10008a1f780000047800c800900068019000e5
:100d20000000eb00828f50003c0039001800780072
:100d30002200290002016000e20f5100070032008a
:100d4000012020000000e000010035000120240007
:100d5000008c70000080eb0030003700020026009d
:100d600002006000820f500009003a003800900035
:100d7000808f50000600390008007800a8ff0700a7
:100d8000800078000080eb000100e00023003a00c2
:100d90001805780000c020000000650018003a0027
:100da000a80490006002200008004000808f5400da
:100db00013003a0000202000d8000700200498000b
:100dc0000000e00005003a0029049800490498005a
:100dd0008904e80039049800080037000a60a00080
:100de0000a0c780040049800012020008080400018
:100df00031049800400c9800500c98000c0007003b
:100e0000280090005004980038009000600498007a
:100e100000002600180c70000000eb004f05780061
:100e20004f04be0000000600e07a2000e500370015
:100e3000881f7800889320001804e00003003a001f
:100e4000f9ff070020c0b300004c78004f04780081
:100e500000000600889fbe000004780008007800ab
:100e60006fff070080047800000420001800600075
:100e70000200320028009000430007000000eb0051
:100e800020049800384090000004e0000500350080
:100e90000000fb00c4fd07000000e000010032007c
:100ea0008084eb00181090000000e0000800320081
:100eb000c6fd07000000e000010032008084eb0066
:100ec00018109000300007000000eb00101498008c
:100ed00000082000180060000f003200219220005e
:100ee0000000eb00d10f140005003a0000004000a4
:100ef00041922000008040000008eb000300370012
:100f00000000e800e80f5000f6ff3a000800780003
:100f10001d0007000e003700000c780000c0eb0039
:100f2000304498006002200008004000200498002f
:100f30004004980050049800400c98006004980009
:100f4000500c98007004980076004400000c980043
:100f5000090078004f04be0000000600889fbe0014
:100f600048932000f0045400480078000000e0009e
:100f700001003200b7ff0700890f5400faff3a0062
:100f80004f04be00000006000000e0002f00320009
:100f9000c0017800e38f51002c0036000308a30045
:100fa0002a003a00b14980000100e000020032004e
:100fb000810f50000400310011009800b0498800f2
:100fc0001600370082007800110190000200e00056
:100fd00002003200800f5100faff39001102780040
:100fe00084824000850f500018003900808f520025
:100ff00003003a0083084200010078000700370030
:101000000200e0000300320083014000830f510022
:101010000e00390012009800900098009000900097
:101020000100e0000900320010014000828f5000f2
:1010300006003a00429320000009eb0010017800fe
:101040001108410091009000110098000000060076
:10105000889fbe0000047800a14980000100e000e4
:1010600002003200010078000d003700b149800015
:101070006093200004003700910f540025003600d3
:101080000180e800910090000100e000faff3a00c2
:1010900010003700920f54001e0036000280e80056
:1010a000100178000200e000faff3a001101780018
:1010b000b14980006093200004003700910f540074
:1010c000140036000180e80091009000828f5000eb
:1010d000faff3a00d9498000888f5400010031009e
:1010e0008804780009007800420007000000e00052
:1010f00004003a00888f5400050032008904d100b2
:10110000f5ff3700091878009fff0700d2ff37006e
:101110000000eb004f04be0000000600881f7800ae
:10112000630440000800a1008000eb00800f540021
:1011300021003600e30f540001003e00480020006b
:1011400008007800c2ff07008000eb000000e0000c
:1011500019003200900078009101780064815100fc
:10116000880f51000300310011019000020878003f
:1011700007003700088140000208780091019000c4
:1011800013019800100178001109140088087800f4
:10119000100178000000eb000200e00004003200c3
:1011a000920190000300e000010032000280e8009c
:1011b000a04988008180e800010078004f04780091
:1011c00000000600010020000100e00008003200dd
:1011d000010080000100e000050032008100e9000c
:1011e00001008800818040000200800000b178008a
:1011f00000000600800078000000eb000100e00025
:101200000500340001007800f9fc0700e10f400000
:1012100001003a000000eb000000060000c0da0008
:0c1220000000060000c0da00000006001c
:020000040000fa
:10122c00494e000049430000494100004e44000073
:08123c004f0a00000d00000044
:020000040000fa
:101244000a00fa00889fbe004007980090952d0080
:1012540001402300008fbe004e0090008000eb0090
:101264000001be00803821000100200003fe0700b9
:1012740079fd07000004be000268290083a9240048
:101284001e00be00c9fd07000001be000800be002c
:10129400f8fc07000200200003002400f5fc07000e
:1012a40020079800310798002e009000be0090009f
:1012b4004efd0700004078000080fb0020108800ed
:1012c4000762a90007e2a8004f04be000080fa00ec
:1012d400000006000000fa000602a800000000005a
:1012e40030108000610060000000e000fcff3a0064
:1012f4000080fa00000006000000fa000622a800a0
:101304000000000030108000620060000000e00077
:10131400fcff3a000080fa00000006000200fa0018
:10132400004f78001e80fb001010880000000000b1
:101334004110800000002400008060000000e000f4
:10134400fbff3a000080fa00000006000200fa00e9
:10135400004f7800114798009e80fb00e00f2000aa
:10136400808060001e4090000080fb0061006000ef
:10137400010070001010880000000000411080007f
:1013840000002400008060000000e000fbff3a0041
:101394000080fa00000006000400fa00000f780044
:1013a400214798000682a9000662a8002e409000fa
:1013b4000004e00011003a0000000000301080003a
:1013c400680060000000e000fcff3a0000108000ac
:1013d400804078001e0078000148780006a2a90029
:1013e4000682a80000000000301080007000600039
:1013f4000000e000fcff3a00130037002e4090008c
:10140400e14f500010003a0000000000301080004e
:10141400680060000000e000fcff3a00001080005b
:10142400804078001e0078000148780006a2a800d9
:101434000682a800000000003010800070006000e8
:101444000000e000fcff3a000080fa000000060003
:101454000000fa000642a8000000000030108000de
:10146400640060000000e000fcff3a000080fa0025
:10147400000006000400fa00000f7800110798002d
:10148400400620006eff070024c0b3008041eb003b
:101494000041eb0000582200010020005500070025
:1014a400609128008e00070000000000a287200041
:1014b4002103200060cab300040007007ac8bf00fb
:1014c4000000fb00acfd0700ffff37000600fa0038
:1014d400004f780011079800220798007dff07004d
:1014e4008040eb001e40780098ff07001e0090002b
:1014f4004800de000040780088ff07001e009000ce
:101504000040780085ff07007bff070011c0b3008f
:101514001e4078008dff070011c0b3002e0090001c
:101524009dff0700caff07000080fa0000000600c4
:101534000800fa0020479800210798003207980015
:10154400be009000010f780062ff07008040eb00ae
:101554002e4090007dff07002e0090004800de0022
:10156400004078006dff07002e00900000407800d6
:101574006aff0700040037001e007800104078005e
:101584001e0fe80065ff07001e0078001040780079
:101594000004e000f8ff3a00adff07000080fa0005
:1015a400000006000600fa00004f780011079800ba
:1015b4004247980047ff07008040eb001e40780038
:1015c40062ff07001e0090004800de000040780023
:1015d40052ff07001e009000004078004fff0700f4
:1015e4004e4090004dff070099ff07000080fa006d
:1015f400000006000800fa00008fbe004247980071
:101604005347980064479800c9e2a90071368000e6
:10161400f00f2e0080806000003020000100700078
:1016240070368800c9c2a8002135800000fe2f0052
:1016340000806000e000b300203588002022ef0025
:101644002222ef002002a9000111800090ff2f0048
:1016540000806000001188001e01be00404b2c0079
:101664004100200005fd0700000078000000e900ab
:10167400401188002342a80011118000f0f32f00cc
:1016840000806000101188008560a9004105800079
:10169400f0ff28000080600000e0a0004005880002
:1016a4009560a80021e2a8000080fa00000006006e
:1016b4000200fa00004f78000000000011118000c1
:1016c40000202000008060000000e000fbff3a00e2
:1016d4001e00fb00201188000080fa0000000600b4
:1016e4000400fa00100798009e009000010f780093
:1016f400040037001e007800104078001e0fe80038
:10170400ebff07001e007800104078000004e000a2
:10171400f8ff3a000080fa00000006000800fa0012
:101724001007980021079800320798000000eb008a
:10173400000f7800070037002e009000104078005a
:10174400ae0090008100e80021079800d8ff070050
:101754001e0fe8009e0078003e009000808f50002d
:10176400f5ff39003e0090000080fa0000000600fa
:020000040000fa
:101774007c0800003000000002000000c0f9a40052
:10178400b099920082f88000905365006e736f00e8
:1017940072206100313a200000205300656e73000e
:1017a4006f72200061323a002000200053656e0001
:1017b400736f7200206133003a20000000080000bb
:1017c4007c00000000000000ac080000880000005d
:1017d400020000000100000000d20800d308d2007b
:1017e40008d20800d208d20008c208000000000095
:1017f40000000000000000000000000000000000e5
:101804000000000000000000000208000101fa00ce
:1018140008fb0800fa08fa0008fa0800fa08ea00c7
:1018240008000000000000000000000000000000ac
:1018340000000000000000000000000000000200a2
:1018440008020200220923000922090022092200b9
:101854000922090012090000000000000000000035
:101864000000000000000000000000000000000074
:1018740000000000ac08d40008fc080000000000d0
:101884000000000000000000000000003809000013
:1018940002000000000000003a09000002000000fd
:1018a40002000000040000003409000004000000ed
:1018b400000000003c0900000200000000000000dd
:0418c4000000000020
:020000040000fa
:0200000401f009
:04000000ffffff00ff
:020000040000fa
:0200000401f009
:04000800ffffff00f7
:020000040000fa
:0200000401f009
:04000c0002000000ee
:020000040000fa
:0200000401f009
:04001000a500000047
:020000040000fa
:0200000401f009
:040014005f00000089
:020000040000fa
:0200000401f009
:04001800f7000000ed
:020000040000fa
:0200000401f009
:04001c00dfff000002
:00000001FF
