:020000040000fa
:080000000002040000000000f2
:020000040000fa
:04000800d80200001a
:020000040000fa
:04000c00d802000016
:020000040000fa
:04001000d802000012
:020000040000fa
:04001400d80200000e
:020000040000fa
:04001800d80200000a
:020000040000fa
:04001c00d802000006
:020000040000fa
:04002000d802000002
:020000040000fa
:04002400d8020000fe
:020000040000fa
:04002800d8020000fa
:020000040000fa
:04002c00d8020000f6
:020000040000fa
:04003000d8020000f2
:020000040000fa
:04003400d8020000ee
:020000040000fa
:04003800d8020000ea
:020000040000fa
:04003c00d8020000e6
:020000040000fa
:04004000d8020000e2
:020000040000fa
:04004400d8020000de
:020000040000fa
:04004800d8020000da
:020000040000fa
:04004c00d8020000d6
:020000040000fa
:04005000d8020000d2
:020000040000fa
:04005400d8020000ce
:020000040000fa
:04005800d8020000ca
:020000040000fa
:04005c00d8020000c6
:020000040000fa
:04006000d8020000c2
:020000040000fa
:04006400d8020000be
:020000040000fa
:04006800d8020000ba
:020000040000fa
:04006c00d8020000b6
:020000040000fa
:04007000d8020000b2
:020000040000fa
:04007400d8020000ae
:020000040000fa
:04007800d8020000aa
:020000040000fa
:04007c00d8020000a6
:020000040000fa
:04008000d8020000a2
:020000040000fa
:04008400d80200009e
:020000040000fa
:04008800d80200009a
:020000040000fa
:04008c00d802000096
:020000040000fa
:04009000d802000092
:020000040000fa
:04009400d80200008e
:020000040000fa
:04009800d80200008a
:020000040000fa
:04009c00d802000086
:020000040000fa
:0400a000d802000082
:020000040000fa
:0400a400d80200007e
:020000040000fa
:0400a800d80200007a
:020000040000fa
:0400ac00d802000076
:020000040000fa
:0400b000d802000072
:020000040000fa
:0400b400d80200006e
:020000040000fa
:0400b800d80200006a
:020000040000fa
:0400bc00d802000066
:020000040000fa
:0400c000d802000062
:020000040000fa
:0400c400d80200005e
:020000040000fa
:0400c800d80200005a
:020000040000fa
:0400cc00d802000056
:020000040000fa
:0400d000d802000052
:020000040000fa
:0400d400d80200004e
:020000040000fa
:0400d800d80200004a
:020000040000fa
:0400dc00d802000046
:020000040000fa
:0400e000d802000042
:020000040000fa
:0400e400d80200003e
:020000040000fa
:0400e800d80200003a
:020000040000fa
:0400ec00d802000036
:020000040000fa
:0400f000d802000032
:020000040000fa
:0400f400d80200002e
:020000040000fa
:0400f800d80200002a
:020000040000fa
:0400fc00d802000026
:020000040000fa
:04010000d802000021
:020000040000fa
:04010400d80200001d
:020000040000fa
:04010800d802000019
:020000040000fa
:04010c00d802000015
:020000040000fa
:04011000d802000011
:020000040000fa
:04011400d80200000d
:020000040000fa
:04011800d802000009
:020000040000fa
:04011c00d802000005
:020000040000fa
:04012000d802000001
:020000040000fa
:04012400d8020000fd
:020000040000fa
:04012800d8020000f9
:020000040000fa
:04012c00d8020000f5
:020000040000fa
:04013000d8020000f1
:020000040000fa
:04013400d8020000ed
:020000040000fa
:04013800d8020000e9
:020000040000fa
:04013c00d8020000e5
:020000040000fa
:04014000d8020000e1
:020000040000fa
:04014400d8020000dd
:020000040000fa
:04014800d8020000d9
:020000040000fa
:04014c00d8020000d5
:020000040000fa
:04015000d8020000d1
:020000040000fa
:04020800d802000018
:020000040000fa
:04020c00d802000014
:020000040000fa
:04021000d802000010
:020000040000fa
:04021400d80200000c
:020000040000fa
:04021800d802000008
:020000040000fa
:04021c00d802000004
:020000040000fa
:04022000d802000000
:020000040000fa
:04022400d8020000fc
:020000040000fa
:04022800d8020000f8
:020000040000fa
:04022c00d8020000f4
:020000040000fa
:04023000d8020000f0
:020000040000fa
:04023400d8020000ec
:020000040000fa
:04023800d8020000e8
:020000040000fa
:04023c00d8020000e4
:020000040000fa
:04024000d8020000e0
:020000040000fa
:04024400d8020000dc
:020000040000fa
:04024800d8020000d8
:020000040000fa
:04024c00d8020000d4
:020000040000fa
:04025000d8020000d0
:020000040000fa
:04025400d8020000cc
:020000040000fa
:04025800d8020000c8
:020000040000fa
:04025c00d8020000c4
:020000040000fa
:04026000d8020000c0
:020000040000fa
:04026400d8020000bc
:020000040000fa
:04026800d8020000b8
:020000040000fa
:04026c00d8020000b4
:020000040000fa
:04027000d8020000b0
:020000040000fa
:04027400d8020000ac
:020000040000fa
:04027800d8020000a8
:020000040000fa
:04027c00d8020000a4
:020000040000fa
:04028000d8020000a0
:020000040000fa
:04028400d80200009c
:020000040000fa
:04028800d802000098
:020000040000fa
:04028c00d802000094
:020000040000fa
:04029000d802000090
:020000040000fa
:04029400d80200008c
:020000040000fa
:04029800d802000088
:020000040000fa
:04029c00d802000084
:020000040000fa
:0402a000d802000080
:020000040000fa
:0402a400d80200007c
:020000040000fa
:0402a800d802000078
:020000040000fa
:0402ac00d802000074
:020000040000fa
:0402b000d802000070
:020000040000fa
:0402b400d80200006c
:020000040000fa
:0402b800d802000068
:020000040000fa
:0402bc00d802000064
:020000040000fa
:0402c000d802000060
:020000040000fa
:0402c400d80200005c
:020000040000fa
:0402c800d802000058
:020000040000fa
:0402cc00d802000054
:020000040000fa
:0402d000d802000050
:020000040000fa
:0402d400d80200004c
:020000040000fa
:0402d800d802000048
:020000040000fa
:0402dc00d802000044
:020000040000fa
:0402e000d802000040
:020000040000fa
:0402e400d80200003c
:020000040000fa
:0402e800d802000038
:020000040000fa
:0402ec00d802000034
:020000040000fa
:0402f000d802000030
:020000040000fa
:0402f400d80200002c
:020000040000fa
:0402f800d802000028
:020000040000fa
:0402fc00d802000024
:020000040000fa
:04030000d80200001f
:020000040000fa
:04030400d80200001b
:020000040000fa
:04030800d802000017
:020000040000fa
:04030c00d802000013
:020000040000fa
:04031000d80200000f
:020000040000fa
:04031400d80200000b
:020000040000fa
:04031800d802000007
:020000040000fa
:04031c00d802000003
:020000040000fa
:04032000d8020000ff
:020000040000fa
:04032400d8020000fb
:020000040000fa
:04032800d8020000f7
:020000040000fa
:04032c00d8020000f3
:020000040000fa
:04033000d8020000ef
:020000040000fa
:04033400d8020000eb
:020000040000fa
:04033800d8020000e7
:020000040000fa
:04033c00d8020000e3
:020000040000fa
:04034000d8020000df
:020000040000fa
:04034400d8020000db
:020000040000fa
:04034800d8020000d7
:020000040000fa
:04034c00d8020000d3
:020000040000fa
:04035000d8020000cf
:020000040000fa
:100400002f8b20000eff20000e018800000000004e
:10041000000020000000e000020032000001200087
:100420002002880014000700d80007000000e00048
:1004300003003a00406e2100010020000200370056
:100440000000200001002000810f70000100320038
:1004500014000700000020000000e000020032004d
:100460000000020000000000ba14020000000000ba
:100470000040da000000fe004440a9008000200097
:100480000000e0000300320000002000a00188000e
:100490004440a800000006008a1f78008b1f7800e7
:1004a0000000060091018800800478000000eb0045
:1004b0001a003700e284440032a0b4009905ba0063
:1004c000e284440032a0b4009906ba00e2844400f9
:1004d00032a0b4000006eb00476fde00fd07b2005b
:1004e000636ce10003003a00ebff07000000eb0043
:1004f0000a003700606ce10004003a00005deb0088
:100500008b05e900fdff3e00040037006168e10053
:10051000010032000086eb000b00070019c7ba008b
:100520001905ba000e04e00003003a000a00e000da
:10053000e0ff3a0000000600fe07b2009e018800be
:100540008a047800f5ff3700395dba008b05e900b1
:100550000c003200295dba008b05e900080032006a
:100560000c00e00003003a00e284440032a0b40032
:10057000f5ff370019ddba008b05e900faff3a00f4
:100580008904e800e184440032a0b40000000600c1
:10059000000000000000000000000000000000005b
:1005a000000000000000000000000000000000004b
:1005b0000040da000000fe000a00fa0011002000ee
:1005c000b1bf9f00c0bf9f006a805700a10807000d
:1005d0004fb897000080fa00000006000a00fa00f9
:1005e000e20f500034003e0070458000e10f5000e3
:1005f00003003200e20f500011003a000c003700f7
:10060000032220000300e00001003a000040da006d
:100610002002e200020035002822ef0021e2a800bb
:100620002342ab000d003a002342a8000b00370024
:10063000030020000300e00001003a000040da005f
:100640000000e200020035000020ef0001e0a800f9
:100650000140ab0001003a000140a800820178008f
:100660000b0037003102fb00e10f500004003a009c
:100670002322ab00feff3a0024118800030037005c
:100680000120ab00feff3a00040088008301e9006e
:100690000300e000f3ff3a00e10f500003003a00ce
:1006a0002302ab00feff32000b0037000100ab005d
:1006b000feff32000800370033002000b3bf9f0068
:1006c000c0bf9f00d1bf9f00e2bf9f006a8057005c
:1006d000620807006fb99700020078000080fa00f6
:1006e000000006000a00fa0051002000b1bf9f0080
:1006f000c0bf9f006a8057005a0807005fb8970084
:100700000080fa0000000600889fbe008004780088
:10071000804580000000e00004003a000e00070061
:100720000084eb000000e0000800350088458000f0
:100730000900e0000500320009004400060007003f
:100740000000e00001003d000084eb00080078009c
:100750004f04be0000000600800078000100e000a9
:1007600003003a00000020008045880000000500da
:100770000080eb0002002000828f500002003e004b
:10078000814588000000eb00000006000000050025
:1007900003f0a200889fbe008a9fbe008c1f7800d5
:1007a000b2000700b90033006450e1004f0032008e
:1007b0006420e1005200320003826c0007003b001d
:1007c0000905d0000306d000820f54000c065d001e
:1007d0000200390002003200890178000306780027
:1007e0008582550004003d000003fd008103fd00eb
:1007f0008502ea008b854200840f720002003b00f4
:1008000060001000e08018006011b8000005eb00e7
:100810007a28e1000a00390006007800c75ddd0093
:10082000f707b200878075002d00370082817100c4
:100830000a017800610560008180d1000080d3004a
:100840008502e900f9ff3b00060440008784480068
:1008500002003b0060041400e0841c000988a3002f
:10086000070032008a817100828171006101640099
:100870008904d1000884d3008b05e80017003700f5
:100880000978a30013003a000b00e00013003400c5
:100890008b05e9000804440089844c000a44740074
:1008a0000978a3000d003a000b00e00007003400b7
:1008b0008b05e9000804440089844c0001003a00db
:1008c0000b0020000978a300f7ff32000001eb00c5
:1008d00002003700828171000a01780028000700b9
:1008e0000cf0a70001f0a000710037006420e100c7
:1008f00002003a00838f6c00710033000801be00d3
:100900000200be006a0037000001be00420007007e
:100910000470a70003f0a10003f8a30013003a003d
:100920006509b10010003200090035006928e100b6
:100930000200350001002800000005000000400012
:10094000818048008502e900fcff3a0000000600b3
:10095000f88f4200050035008100d1000080d300ef
:100960008502e800fcff3a00000006008000eb0072
:10097000000005004f89de00820178003302370055
:1009800081002000618055000b003d000b0020001d
:1009900061fe2f000100e1001d0034008281710022
:1009a000610164008904d1000884d3000000e800dc
:1009b000faff3a007100200061006400030070003b
:1009c000020060000900320061044400e0844c0031
:1009d0000988a500050032008b05e8006808e100e1
:1009e00002003a008904d1000884d300f20f2000ed
:1009f0000258e10005003d00c75ddd00f907b200c7
:100a00008980750008007800000006000bf82700b8
:100a10008b00780000000500c70ade00f107b20075
:100a2000f50fb20008003200e1cf420002003200b0
:100a30000170a00024000500810f70000100320049
:100a40000408050044000500810f700002003a0010
:100a5000140005008502e9000000400081c0480044
:100a6000fcff3b000170a000240005000004be0054
:100a7000e9ff07000003be000405be000200be003f
:100a8000e5ff0700844f7500000006000200be006d
:100a90006450e100050036006420e10002003600e9
:100aa0000968a30001003a000800be000160a00030
:100ab0004f0678004f05be004f04be000000060040
:100ac000f0ff2f00f1ff2700f9ff37000c00fa00bc
:100ad000889fbe008a9fbe008c9fbe00e3ff070078
:100ae0000206be00840578000200be00020020005d
:100af0008a01070005003a008b02b30012002000b3
:100b00008601070001003a00f8856d000c01be0067
:100b1000c60007000800be009b0032000b08a300bf
:100b20009e003a000df0a7000be0a00009f0a7001e
:100b30000bf0a00009f0a1000801be00bb000700f7
:100b40000bf0a6009500320001003c000bd0a00085
:100b50008acf7500b20033006000b8006250e10037
:100b600099003900a1003e000b28a300a2003a0022
:100b70000bf8a300060032000b58a300a7003200b8
:100b80000801be00a90007000800be009400320062
:100b90000800be00b00007000004be000505780094
:100ba0000bf0a7000b30a6000bf0a1005b0798002c
:100bb000324f200053f323007f01070005003d0062
:100bc0000800be0012002000df0107000004be0084
:100bd0000a05e9004a0798006150b90065ff07005f
:100be000008fbe000c01be00500207007601070016
:100bf000300798000100e00002003d006000100096
:100c0000e0801800f2ff2700820f5000e08f5800ac
:100c100064003e000c00be006b0107002007980036
:100c2000f2072000820f5000e08f580005003c00c2
:100c300012f82f00f3ff2f00820f5000838f58000f
:100c400009003d000a00e0000300320001003c0002
:100c50000201ea00020578006000b8002007980051
:100c60003a079800190037003e0090006100b90073
:100c700040ff0700809fbe000c00be004109dd0060
:100c80004811de007208b100240107000005be0013
:100c90001e01be00250207004f01be00bcfe07007a
:100ca000809fbe000c00be000a01be00b8fe070017
:100cb0001e01be001d0207004f01be00b5fe070069
:100cc0008221270013f32300180207000005be004d
:100cd0002e0090006100b90026ff070001f0a2007d
:100ce0000c01be00abfe07000006be000800be00ff
:100cf000b70107000c01be000c0207000a01be008c
:100d0000a4fe0700809fbe004a0007002e05900049
:100d10000af0a7000a05ea00050037000800be0037
:100d20000801be00010207000004be000c00be0066
:100d30000801be000a00a700fc0107000006be0073
:100d40000a05d100f5ff3a005e01900002e0a6001e
:100d5000030037000001be00360007004b0007000b
:100d60000004be004f00be008a0007000801be005c
:100d7000ee0107003e01900073010700de059000c0
:100d80000bf0a70001f0a2004f06be004f05be0009
:100d90004f04be000080fa00000006002500070096
:100da000f9ff3700270007006000b8000bd0a7004c
:100db0000bc0a0000be0a7000bc0a2000bc0a70057
:100dc00001f82700f0ff37000df8a3000200320001
:100dd0001e000700190007000bf8a300eaff32000d
:100de0000b30a70001f0a200e7ff37000df8a300c9
:100df000f9ff3a00f7ff37000801be000b000700bb
:100e0000e6ff320001003c000df0a2006000b800d7
:100e10000df0a70009000700dbff37000b000700fb
:100e2000f1ff2700f0ff2f00d7ff37000100070078
:100e3000e100370001f823000000050001f8270059
:100e400000000500200220000100370010022000f1
:100e500010408800000006000003be00eefe070000
:100e60006220e100020032000600be00050005001d
:100e7000e507b100f107b20004f0230084807000a0
:100e800007f0a70001f0a00024000500889fbe0025
:100e90008a9fbe008c1f7800f4fe0700fbfe330023
:100ea00003866c006450e1002e0032006420e100f3
:100eb000330032006150e1002f0032006120e10078
:100ec0003100320085855500eb07b0000900200095
:100ed00008042000050037000804440089844c0001
:100ee0000a0031000603430087834b0000015300d2
:100ef00081815b00f8ff33000203be000800a00000
:100f00000804440089844c00f6ff3900c639dd002e
:100f10008301730001003200130020008904d10016
:100f20000884d3000998a300050032000800a70038
:100f30000300a0008904d1000884d3008b05e800d9
:100f40008904d1000884d3000001eb000281d200a3
:100f50008bfe070001f0a1000cf0a70001f0a0003b
:100f6000d3fe37006420e100d5fe32000801be0048
:100f70000200be00f7ff37006120e100d0fe320022
:100f80006000b800f3ff37000000200001f82700e0
:100f9000f0ff3700889fbe008a9fbe008c9fbe0076
:100fa0000004be009cfe07000800be006420e100b3
:100fb00048003e005500320072212700132b240008
:100fc0007f00070047003c000800be00c2ec28007c
:100fd000e32c2c0078000700470035000800be0015
:100fe00001f0a10002002000033823007200070076
:100ff000430035000800be00b2a32a0083fb230093
:101000004a0107000200200003f0230001f0a700be
:1010100003f0a000dffd07006b0007000005be0025
:1010200054fe070001f0a2000006be0002002800e6
:1010300013f323003d0107000801be00d5fd0700a2
:10104000809fbe000c00be0032082800e3952b00f4
:10105000360107004f01be00cefd07000006be00ae
:101060000001be0031010700809fbe004241250003
:1010700083b823002d0107000200200003e82300ad
:10108000c4fd07000c01be00280107000006be00d9
:101090004f00be00f2f92b00c3d423002301070048
:1010a0000200200003f02300bafd07000c01be007f
:1010b000b7fd07000001be000c00be0073ff070073
:1010c0000200200003f02300b2fd0700610145008b
:1010d0009d0007004f06be004f05be004f04be0036
:1010e0000000060001f82700000020002202200076
:1010f00012408800f7ff37006000b800fbff3700a0
:1011000001f8230000002000f2ff370009f8a300d7
:10111000f0ff32006000b800eeff3700889fbe008d
:101120008a9fbe000003be003bfe070085057800d5
:1011300082815200020020006220e10004003a0097
:10114000f307b100040035007718e1000400350012
:101150000600be00140037006000b8000f00370022
:10116000f50f2000faff2f008502d1000a85d30079
:101170008301e900fcff3b008184620000046500fc
:10118000890f7400f2ff32008582ea000a85ea00c6
:101190008184620000046500f9fd070007f0a700e4
:1011a00001f0a0000081eb000200e0004f05be004e
:1011b0004f04be0000000600140020000f0137009d
:1011c000f4ff2f000d0137000001be0012fe0700e2
:1011d0000470a70003f0a1006509b10016003200f9
:1011e0000d0035006828e10006003500f0ff2f00f3
:1011f000f1ff27000300e00013003b00010028007e
:101200000000050000004000818048008502e900e0
:10121000fcff3a0008003700f88f420002003c0053
:101220008000eb00000005008100d1000080d300a9
:101230008502e800fcff3a000300e00002003b00ea
:1012400060001000e080180000000600881f780091
:10125000030478000300e00007003d006000100078
:10126000e080180060011900e081190002003b00d5
:1012700001f02d00030037000400070008f0a7006c
:1012800001f0a0004f04780000000600889fbe0017
:101290008a9fbe0000827000040271000482710007
:1012a000260032000004be000200be006011b8003b
:1012b0006b092000950220000182cf000a0039004e
:1012c0000541b1000082cf00070039000541b1009f
:1012d0000982cf00040039000541b1000882cf0027
:1012e000010039000541b1000542520012003200f0
:1012f0000a003b0082817100610164008100d1001d
:101300000080d3008984d3000884d3008b05e800d3
:101310000442e800f7ff3a000700370008044400e1
:1013200089844c0000004800818048008b05e9005a
:101330000442e900f9ff3a0091fd07004f05be00a5
:101340004f04be00000006000003be00b2fd07000f
:101350006220e100020032000600be00000006002c
:1013600085024100e30f20000328e10005003c0056
:10137000a3fe2f000328e10007003d000500200028
:1013800001003700f50f20002002200010408800e7
:101390006000b8000800370013002000838152006d
:1013a00005003d008100d1000080d3008301e800ea
:1013b000fcff3a0005002000c72add00f107b2005b
:1013c0008580700007f0a70001f0a0000000060073
:1013d000889fbe008a9fbe008c9fbe009efe0700b5
:1013e000850478000005be006420e10049003e004d
:1013f0006220e10003003200090035000bf8a30071
:10140000440032000bf8a300080032001002200054
:1014100010408800f0ff2f00f1ff27003d0037004b
:1014200001f82f00000020003a0037003d000700bf
:10143000d7fc07000006be000a00be00324f2000a5
:1014400053f323005eff0700060034000c00be00cb
:1014500034000700cefc07000006be000a00be00f4
:10146000020037008904e9000c00be002d000700cf
:101470002e0007002b000700c6fc07000001be007d
:101480000c00be0081fe07000005be000001be008a
:10149000260007000006be00a2f32300430d2c0027
:1014a000bcfc0700809fbe000c00be00d2e32700fa
:1014b000d3f02b001d0007004f01be0073fe070094
:1014c0000006be000a01be00180007000a01be00a7
:1014d000b0fc07000006be006148b90025fd07000a
:1014e0000005be0032082800e3952b000f0007001e
:1014f0000c01be00a7fc07000006be000a00be00eb
:101500000200280013f32300080007000c01be00ae
:10151000a0fc07004f06be004f05be004f04be00f2
:101520000000060003f0230002000500889fbe00b3
:101530008a9fbe008c1f78004cfd070053fd3300ce
:1015400003866c006450e100240032006420e10056
:10155000270032006150e100220032006120e100ea
:10156000210032008b854200eb07b1000134b80046
:10157000003ab8000804420089844a00013ab800e1
:101580000030b8008880400009014a0004003300a0
:101590000000400081804800020149008b05e900fd
:1015a000c909dd0083017000010032001300200032
:1015b000c814de004814dd004709de001200b20046
:1015c000c808de0008847000edfc070001f0a100ef
:1015d0000cf0a70001f0a00035fd37006120e1000c
:1015e00037fd32000801be000200be00f7ff3700e1
:1015f0006150e100fcff3a0031fd3700889fbe00da
:101600008a9fbe00841f780018fd07004f007800f5
:1016100011003300f0ff2f00838f6c0006003b00a9
:10162000040565000a00a7000800370009f0a600bd
:101630001000200008003700820f5400838f5c00e8
:10164000030039001000200001003e0000002000cf
:1016500009f0a7000000ea004f05be004f04be00dd
:101660000000e00000000600889fbe000004780033
:101670000100780082047800880178000901780070
:10168000110020000e000700890f500001003200f9
:101690000004eb00080078004f04be0000000600c4
:1016a0000000fa00e88157004fb99700c18220007e
:1016b00040b32000220207000080fa00000006006c
:1016c000889fbe008a9fbe008c9fbe008e1f780040
:1016d0000006780001047800020078008304780096
:1016e0000881b900020778000200e00042003200e1
:1016f0000800e0004100320082057800c900900037
:1017000069009000808f50000400390009007800c3
:10171000500007000000e0002900350000402000d4
:10172000190060000a0032000b017800a1002000bf
:101730000c00780036000700800678000d00e000fd
:1017400006003200610516000a85460004003700d5
:101750000b0578008006eb00010037000b057800d0
:1017600049009000e9009000808050008a8f50006e
:1017700002003100010578008006eb000a017800c4
:101780008c0078002c0007008a85550049009000e5
:101790000a004000c00498000d00e0000400320080
:1017a00009007800d50007000000e00004003a00be
:1017b0000b00e000020032000a064600cfff3700af
:1017c000008020001900600002003200090078004b
:1017d000ca00070000c020001900600002003200ab
:1017e00049009000e00498008b05570011000900a3
:1017f0008885d800010037000000eb004f07780013
:101800004f06be004f05be004f04be00000006009c
:1018100003003700b0cf1000050032000201e900dc
:10182000800178000200e000faff3a0000000500a5
:1018300003007800000006008001780002003700f5
:10184000b15978000201e9000200e000fcff3a0013
:1018500000000600889fbe008a1f78000004780000
:10186000c8009000680190000000eb00828f5000db
:101870003c003900180078002200290002016000b5
:10188000e20f510007003200012020000000e000bc
:101890000100350001202400008c70000080eb0066
:1018a000300037000200260002006000820f500066
:1018b00009003a0038009000808f5000060039007f
:1018c000080078008d000700800078000080eb00a1
:1018d0000100e00023003a001805780000c0200055
:1018e0000000650018003a00a80490006002200083
:1018f00008004000808f540013003a0000202000b0
:1019000046020700200498000000e00005003a00ad
:1019100029049800490498008904e80039049800d3
:10192000080037000a60a0000a0c78004004980004
:10193000012020008080400031049800400c980075
:10194000500c98000c0007002800900050049800ec
:10195000380090006004980000002600180c700009
:101960000000eb004f0578004f04be0000000600a9
:10197000e0d520009c003700881f7800a88a20004e
:101980001804e00003003a00f9ff070020c0b3008c
:10199000004c78004f04780000000600889fbe00cd
:1019a00000047800080078005400070080047800e4
:1019b000000420001800600002003200280090009f
:1019c000b10107000000eb002004980038409000af
:1019d0000004e000050035000000fb00f6fa0700f7
:1019e0000000e000010032008084eb00181090003d
:1019f0000000e000080032003afb07000000e000b1
:101a0000010032008084eb00181090009e01070056
:101a10000000eb001014980000082000180060007f
:101a2000150032000001eb006000b800c387200001
:101a30000202d00063027a00880f520005003a00cb
:101a40000000400081804800008041000008eb0059
:101a50000600370061004000e08048000201e80015
:101a6000e80f5000e08f5800f0ff3a0008007800bf
:101a7000850107000e003700000c780000c0eb0065
:101a800030449800600220000800400020049800c4
:101a90004004980050049800400c9800600498009e
:101aa000500c98007004980076004400000c9800d8
:101ab000090078004f04be0000000600881f78006f
:101ac0000004eb006140b800e2ff2f00f3ff2f009d
:101ad0009e030700a2882000620078000000e0005a
:101ae00001003200adff07000804e800e80f5400d1
:101af000f4ff3a004f04780000000600889fbe0003
:101b0000000478000800e0000f003a008004eb00b9
:101b1000090478008800d000c087200061007800a8
:101b20000000e00004003200f4ff07000000e000c5
:101b300001003d008084eb000804e800e80f540039
:101b4000f4ff3a0025003700000022001800600072
:101b50008004eb0021003200a80490000f00370041
:101b600009015100384090000000fb008900780016
:101b70009afa07000000e00007003c0028009000ef
:101b80004004980060049800500c98001890a00041
:101b90008084eb00110037008084440048019000ed
:101ba000828f5400eeff3900280090004004980016
:101bb0009800780002c020000281600001003a0015
:101bc0003800900001e8a300020032006004980091
:101bd00001003700500c98008004eb0009007800e9
:101be0004f04be0000000600010020000100e000dc
:101bf00008003200010080000100e0000500320012
:101c00008100e900010088008100d000020080000e
:101c100000b1780000000600889fbe000004780034
:101c20000203be0081047800080278008901780070
:101c3000120020000600be009a020700890f500023
:101c4000010032000004eb00080078004f04be00e1
:101c5000000006006800fa00889fbe008a9fbe0050
:101c6000800478000104780082057800030578007c
:101c70008400780000f92f000f0040008702070061
:101c8000d98f9f00fb8f9f000000eb00a09f9f005b
:101c9000e88f9f009a84fb000904fb008904ea0096
:101ca000cf4cde0050022000800f54000d003200a7
:101cb000e18f54000b003a00090178008a00780097
:101cc0007f889700df89970003000100f08f9f0055
:101cd0000000e000950032002f9897000000e80017
:101ce000a09f9f000905450050022000800f54006e
:101cf000040032000800e000e6ff3a002f98970049
:101d00008b0037000000eb00809f9f00f0979f0042
:101d1000e0979f00d0979f00c0979f00b0979f00cb
:101d200007003700018a2000010050000000400039
:101d30004189200061007800cf9897000100700071
:101d4000c09f9f000a04780008057800ba44780014
:101d50008900fb00008a20005a0107000000e00013
:101d6000f0ff3a00a1c2b30081cf54000e003a0048
:101d70008f8897000180e900808f9f001000780015
:101d8000b09f9f000000e00005003d000000ea0059
:101d9000b09f9f004f9897000020a000c09f9f0019
:101da0000804e80010003700b09f9f00880078000a
:101db0000000eb0005003700f3ff2700830f500001
:101dc000020032006a02b9000400410001047800f8
:101dd000880078003101fb000203b100e90f5100d7
:101de000f5ff3600b09f9f00e0c2b300984f10008f
:101df000020032000080eb0019003700a0c2b300df
:101e0000d84f100007003a008f8897000180e90042
:101e1000808f9f0010007800909f9f000804e800ca
:101e2000100037000000eb00909f9f0088007800b2
:101e300005003700f3ff2700830f50000200320037
:101e40006a02b900040041000104780088007800ab
:101e50003101fb000203b100e90f5100f5ff36002c
:101e6000909f9f00984478008900fb00c088200064
:101e7000140107000000e000020032000804e8003e
:101e8000010037008044eb00a97f9f0080c6b300ab
:101e900080cf540006003a0098cf140010003a009a
:101ea00066405000a07f9f000804e8000c00370047
:101eb000c0c6b30080cf540009003a0098cf140088
:101ec00007003a0067404000d84f100002003a0077
:101ed0006e4050000100370010c7b300a07f9f0084
:101ee0001801fb00c3fb2f008f81410001f92f0077
:101ef0008f80400020f92f000f00400015000700e0
:101f00000000e00009003a00c1fb2f008f80400074
:101f100020f92f000f004000060107000000e0003c
:101f2000020035000805e8005aff37000080eb008a
:101f30004f05be004f04be000080fa0000000600fe
:101f4000030278008201780001017800c1e02000de
:101f500040ff3700889fbe008a1f78000004780089
:101f600030c5b300804f51000800320030c7b300c5
:101f7000804f51000500320051c2b3002808900084
:101f8000814f510035003a00320037000869900057
:101f900050c6b300804f51001a003a00110178007a
:101fa00064005100800878001000be00000c98000a
:101fb000110c9800881190000300e00007003d001c
:101fc0008081eb000001eb00450207000001be002c
:101fd0008808900081005100080037000001eb00e4
:101fe0003f020700008170000300320008099000e2
:101ff000820050000100370088109000410c9800ca
:102000001d0037001180e900800878001005780075
:102010007a049800881490000900e00004003d0054
:102020000a007800b300070080047800070037003a
:10203000090178008000eb000a007800f4fd070039
:102040000000e000010032008a045000490c9800b2
:102050000900370082717800050037008081410057
:102060000204e00001003a00014178008249780052
:102070000000e800200c98000000eb004f057800fd
:102080004f04be00000006000000e0002f003200f8
:10209000c0017800e38f51002c0036000308a30034
:1020a0002a003a00414580000100e00002003200b1
:1020b000810f500004003100110098004045880055
:1020c0001600370082007800110190000200e00045
:1020d00002003200800f5100faff3900110278002f
:1020e00084824000850f500018003900808f520014
:1020f00003003a008308420001007800070037001f
:102100000200e0000300320083014000830f510011
:102110000e00390012009800900098009000900086
:102120000100e0000900320010014000828f5000e1
:1021300006003a00628a20000009eb0010017800d6
:102140001108410091009000110098000000060065
:10215000889fbe0000047800314580000100e00047
:1021600002003200010078000d0037004145800078
:10217000808a200004003700910f540025003600ab
:102180000180e800910090000100e000faff3a00b1
:1021900010003700920f54001e0036000280e80045
:1021a000100178000200e000faff3a001101780007
:1021b00041458000808a200004003700910f5400c0
:1021c000140036000180e80091009000828f5000da
:1021d000faff3a0069458000888f54000100310001
:1021e0008804780009007800480007000000e0003b
:1021f00004003a00888f5400050032008904d100a1
:10220000f5ff3700091878009fff0700d2ff37005d
:102210000000eb004f04be0000000600881f78009d
:10222000630440000800a1008000eb00800f540010
:1022300021003600e30f540001003e00480020005a
:1022400008007800c2ff07008000eb000000e000fb
:1022500019003200900078009101780064815100eb
:10226000880f51000300310011019000020878002e
:1022700007003700088140000208780091019000b3
:1022800013019800100178001109140088087800e3
:10229000100178000000eb000200e00004003200b2
:1022a000920190000300e000010032000280e8008b
:1022b000304588008180e800010078004f047800f4
:1022c00000000600020037000304e00006003200b0
:1022d0000001780002007800b041780081cf510001
:1022e000f9ff3a00010037000001eb00020078001e
:1022f0000000060080007800010178003104e00051
:10230000fdff3a0000005100000006008000780048
:102310000000eb000100e00005003400010078003f
:10232000f9f80700e10f400001003a000000eb005f
:10233000000006000400fa00889fbe008a9fbe00cd
:102340008c1f78000004780001067800a814900023
:10235000280890008084540038089000808454003d
:1023600048089000808454005808900080845400ed
:10237000680890008084540078089000808454009d
:102380000002220090bf9f0000032300a0bf9f0017
:10239000381090000028a30015003a000900e00062
:1023a00013003400090578008a057800e20f550013
:1023b000010036002b002000c80190000b017800be
:1023c000ee80570068009000030001006004980050
:1023d0000000e000aa003200181090000b0040003e
:1023e000101498000b0555004240a900eeff3c0078
:1023f000280990000200e0000c003400c8019000a1
:102400008c007800680090000300010060049800d0
:102410008080eb000000e0009a00320098109000ed
:10242000280890000080400010149800380d90009b
:102430000a00e000110034008a057800e20f550020
:10244000010036002b002000c80190000b0178002d
:10245000ec805700680090000300010060049800c1
:102460000000e00086003200181090000b004000d1
:10247000101498000b055500edff37000869900017
:10248000c808900050c6b300804f510008003a00c1
:102490000100e00015003400580290000809900087
:1024a00098099000680090000400010007003700c0
:1024b0000100e0000d003400c80190000101780027
:1024c000f80090006800900003000100600498008c
:1024d0008080eb000000e0006a003200981090005d
:1024e000480890000080400010149800580d90009b
:1024f0000a00e000110034008a057800e20f550060
:10250000010036002b002000c80190000b0178006c
:10251000ec80570068009000030001006004980000
:102520000000e00056003200181090000b00400040
:10253000101498000b055500edff37000869900056
:102540006808900051c6b300814f51000d003a0059
:102550000000e0001c00340078019000c8089000e2
:10256000010141006111b800828fd2008381d20045
:10257000580290008000780068009000040001007c
:10258000090037000000e0000f00340078019000df
:10259000c808900081004100c80190000001780047
:1025a0006800900003000100600498008080eb0048
:1025b0000000e0003300320098109000680890009e
:1025c0000080400010149800780d90000a00e00090
:1025d000110034008a057800e20f55000100360032
:1025e0002b002000c80190000b017800ec80570000
:1025f0006800900003000100600498000000e00003
:102600001f003200181090000b00400010149800ba
:102610000b055500edff3700381090008000eb00ef
:102620000028a300170032000900e0001500340064
:1026300009057800e28f5400010036002a002000ce
:10264000c80190000a017800ee80570068009000f1
:1026500003000100600498000000e0000800320060
:10266000181090000a004000101498008a8454004a
:102670004240a900eeff3c008000eb000100370063
:102680008080eb00010078004f0678004f05be0007
:102690004f04be000080fa00000006000108780028
:1026a00000000600e6874700889fbe008a9fbe00a4
:1026b0008c9fbe008e1f780082bf9f0004047800ac
:1026c000029ab900f4b79f000400e00059003200fc
:1026d0000fb997000200e000570032000006be006c
:1026e00004077800c800900068009000808f5000b8
:1026f000040039000800780056fc07000000e000e4
:102700003b00350000402000180060000a00320045
:102710008e017800a20020000c00be0070000700af
:102720000005be0000807500070032008c045500d3
:102730008904e800050037008e0478000a002000b4
:102740000b002000010037008e0478004801900043
:102750006800900002005000890f50000300310013
:10276000800478000a0020000b0020006111b800ee
:10277000828fd2008381d200090278000c00be0053
:102780003a00070009075700480090000900400080
:10279000400498000a8575000400320008007800a3
:1027a000d6fc07000000e00011003a000e00e00037
:1027b0000f0032006148b800808fd2008180d200c3
:1027c0000000780000f0a1008c01d0000001d000d2
:1027d000028641004220a80081864e004200a900e6
:1027e0004220ae004200a8000c86d300bdff370097
:1027f000008020001800600002003200080078000d
:10280000befc070000c0200018006000020032007b
:10281000c8019000630498007fb097000e07500035
:102820000fb99700110009000287d80080017800d5
:10283000010037008001eb00030078004f077800ab
:102840004f06be004f05be004f04be006f00b10032
:102850000000060000c0da000000060000c0da0038
:102860000000060000c0da00000006003400f80096
:102870000203be00820270008502720002f0a60010
:1028800000f0a6008100e800a10188001500b20058
:1028900008003200105978000402e9000d003200ef
:1028a00061004000fbff39003420ec0000002800ec
:1028b000f8ff3700101978000482e90005003200a3
:1028c00062004000fbff39003420ec0000002800cb
:1028d000f8ff37003400f9000601be0000000600d2
:1028e0000300e00007003200a5018000a10188007c
:1028f00010427800a50188000402fb00820f5200fc
:10290000110032008301e900a5018000a1018800c7
:1029100010427800a50188000404e000080032009d
:10292000000278001000b00000026a004260af00b0
:1029300000f0a0000482d2000180b000e8ff370060
:10294000000020000100200000000600020ab9007b
:10295000001bb9000200b800810042008100430062
:04296000000006006d
:020000040000fa
:10296400686f00006c6100000a0d000000000000a8
:020000040000fa
:102974000400fa00000f780011079800000000001e
:10298400f01f20006019880041168000f0cf2f004e
:1029940000806000401688006840a800401680004f
:1029a4000050a00040168800001680000000a0001f
:1029b4000016880010168000610060000000e0002e
:1029c4000e003a0000000000101680006100600054
:1029d4000000e000fcff320000882300110020000a
:1029e4004d010700601680000080a000601688007a
:1029f400601680000090a100601688001016800008
:102a0400610060000000e0000e00320000000000e1
:102a140010168000610060000000e000fcff3a0036
:102a240000882300110020003b010700601680008d
:102a34000090a00060168800601680000080a1004d
:102a440060168800204b2900801f780013fb0700c4
:102a54008f87e90000a82100610020002e010700f3
:102a6400d4ff37000000fa000080fa0000000600de
:102a74000000fa005116800000022000008060006f
:102a84000000e00007003200601680000080a00013
:102a940060168800601680000090a100601688000f
:102aa40006003700601680000090a00060168800c1
:102ab400601680000080a100601688000080fa0083
:102ac400000006000000fa005116800000022000f9
:102ad400008060000000e00003003a00cd02a8007e
:102ae400cd22a90002003700cd02a900cd22a80002
:102af4000080fa00000006000000fa000c00370015
:102b040000502300c100200003010700601680006c
:102b14000000400080007800601680000100700012
:102b240060168800004080000000e8000040880033
:102b340000408000ee0f5000f1ff340000408000a0
:102b44000000e900004088000b003700005023001b
:102b5400c1002000f0000700601680008000d10052
:102b6400601680000100700060168800004080003c
:102b74000000e90000408800004080000000e00000
:102b8400f2ff3d000028ef000080fa00000006007c
:102b94000000fa000d003700004080001100200002
:102ba4000008dd00800078006016800001007000dd
:102bb4006016880000a8210061002000d6000700ec
:102bc400004080000000e8000040880000408000d1
:102bd400ef0f5000f0ff3400004080000000e900d7
:102be400004088000e0037000040800011002000e3
:102bf4000008dd000080ea00800078006016800094
:102c0400008060006016880000a821006100200098
:102c1400c1000700004080000000e9000040880077
:102c2400004080000000e000efff3d000028ef00be
:102c34000080fa00000006000000fa000028ef00ff
:102c44001300370000408000cf80de0048f7070003
:102c54000001be0000002000010024009af70700d4
:102c64000200200003f82300c8f6070025f7070038
:102c7400000078006016880000a821006100200090
:102c8400a5000700004080000000e8000040880024
:102c940000408000f00f5000eaff3400f0002000f4
:102ca400004088001300370000408000cf80de0021
:102cb4002ff707000001be000000200001002400df
:102cc40081f707000200200003f82300aff6070095
:102cd4000cf70700000078006016880000a82100a7
:102ce400610020008c000700004080000000e90023
:102cf40000408800004080000000e000eaff3c0043
:102d04000080fa00000006000000fa00f0f0200045
:102d14006016880000242400f10020007e000700d3
:102d2400000f2f006016880000242400f10020000a
:102d3400790007000080fa00000006000000fa0095
:102d4400601680000000a000601688002016800035
:102d54000000a1002016880000902000d10320006c
:102d64006d000700201680000000a00020168800d7
:102d7400601680000000a10060168800009020000a
:102d8400d1032000640007000080fa000000060060
:102d94000000fa00cc02a800c402a90000a8210087
:102da400610020005c000700cc02a900c402a80056
:102db40000a8210061002000570007000080fa00ed
:042dc4000000060005
:020000040000fa
:102dc80000080000020000000000000002080000e7
:102dd8000200000000000000040800008800000055
:102de8000200000001000000002a08002b082a0049
:102df800082a08002a082a00081a0800000000000b
:102e080000000000000000000000000000000000ba
:102e1800000000000000000000020800010152004c
:102e2800085308005208520008520800520842008d
:102e38000800000000000000000000000000000082
:102e48000000000000000000000000000000020078
:102e5800080202007a087b00087a08007a087a00db
:102e6800087a08006a08000000000000000000005e
:102e7800000000000000000000000000000000004a
:102e88000000000004082c0008540800000000009e
:102e9800000000000000000000000000aa08000078
:102ea80002000000000000008c0800001a0000006a
:102eb80002000000686a6c00747a4c00000001008f
:102ec80000020000040008000010000000002000bc
:102ed8002b2d230030000000ac0800000200000089
:102ee8000200000004000000a60800000400000022
:102ef80000000000ae080000020000000200000010
:102f080001000000b00800000200000000000000fe
:042f180000000000b5
:020000040000fa
:102f1c00f03fb1000180b10006003500ee0309005e
:102f2c0000000000403fb1000180b100fbff3d00fc
:102f3c001000b000203fb0000200350000800900f6
:082f4c00000000000000060077
:020000040000fa
:0200000401f009
:04000000ffff0000fe
:020000040000fa
:0200000401f009
:04000800ffff0000f6
:020000040000fa
:0200000401f009
:04000c0002000000ee
:020000040000fa
:0200000401f009
:04001000a500000047
:020000040000fa
:0200000401f009
:040014005f00000089
:020000040000fa
:0200000401f009
:04001800f7000000ed
:020000040000fa
:0200000401f009
:04001c00dfff000002
:00000001FF
