:020000040000fa
:080000000002040000000000f2
:020000040000fa
:04000800c80200002a
:020000040000fa
:04000c00c802000026
:020000040000fa
:04001000c802000022
:020000040000fa
:04001400c80200001e
:020000040000fa
:04001800c80200001a
:020000040000fa
:04001c00c802000016
:020000040000fa
:04002000c802000012
:020000040000fa
:04002400c80200000e
:020000040000fa
:04002800c80200000a
:020000040000fa
:04002c00c802000006
:020000040000fa
:04003000c802000002
:020000040000fa
:04003400c8020000fe
:020000040000fa
:04003800c8020000fa
:020000040000fa
:04003c00c8020000f6
:020000040000fa
:04004000c8020000f2
:020000040000fa
:04004400c8020000ee
:020000040000fa
:04004800c8020000ea
:020000040000fa
:04004c00c8020000e6
:020000040000fa
:04005000c8020000e2
:020000040000fa
:04005400c8020000de
:020000040000fa
:04005800c8020000da
:020000040000fa
:04005c00c8020000d6
:020000040000fa
:04006000c8020000d2
:020000040000fa
:04006400c8020000ce
:020000040000fa
:04006800c8020000ca
:020000040000fa
:04006c00c8020000c6
:020000040000fa
:04007000c8020000c2
:020000040000fa
:04007400c8020000be
:020000040000fa
:04007800c8020000ba
:020000040000fa
:04007c00c8020000b6
:020000040000fa
:04008000c8020000b2
:020000040000fa
:04008400c8020000ae
:020000040000fa
:04008800c8020000aa
:020000040000fa
:04008c00c8020000a6
:020000040000fa
:04009000c8020000a2
:020000040000fa
:04009400c80200009e
:020000040000fa
:04009800c80200009a
:020000040000fa
:04009c00c802000096
:020000040000fa
:0400a000c802000092
:020000040000fa
:0400a400c80200008e
:020000040000fa
:0400a800c80200008a
:020000040000fa
:0400ac00c802000086
:020000040000fa
:0400b000c802000082
:020000040000fa
:0400b400c80200007e
:020000040000fa
:0400b800c80200007a
:020000040000fa
:0400bc00c802000076
:020000040000fa
:0400c000c802000072
:020000040000fa
:0400c400c80200006e
:020000040000fa
:0400c800c80200006a
:020000040000fa
:0400cc00c802000066
:020000040000fa
:0400d000c802000062
:020000040000fa
:0400d400c80200005e
:020000040000fa
:0400d800c80200005a
:020000040000fa
:0400dc00c802000056
:020000040000fa
:0400e000c802000052
:020000040000fa
:0400e400c80200004e
:020000040000fa
:0400e800c80200004a
:020000040000fa
:0400ec00c802000046
:020000040000fa
:0400f000c802000042
:020000040000fa
:0400f400c80200003e
:020000040000fa
:0400f800c80200003a
:020000040000fa
:0400fc00c802000036
:020000040000fa
:04010000c802000031
:020000040000fa
:04010400c80200002d
:020000040000fa
:04010800c802000029
:020000040000fa
:04010c00c802000025
:020000040000fa
:04011000c802000021
:020000040000fa
:04011400c80200001d
:020000040000fa
:04011800c802000019
:020000040000fa
:04011c00c802000015
:020000040000fa
:04012000c802000011
:020000040000fa
:04012400c80200000d
:020000040000fa
:04012800c802000009
:020000040000fa
:04012c00c802000005
:020000040000fa
:04013000c802000001
:020000040000fa
:04013400c8020000fd
:020000040000fa
:04013800c8020000f9
:020000040000fa
:04013c00c8020000f5
:020000040000fa
:04014000c8020000f1
:020000040000fa
:04014400c8020000ed
:020000040000fa
:04014800c8020000e9
:020000040000fa
:04014c00c8020000e5
:020000040000fa
:04015000c8020000e1
:020000040000fa
:04020800c802000028
:020000040000fa
:04020c00c802000024
:020000040000fa
:04021000c802000020
:020000040000fa
:04021400c80200001c
:020000040000fa
:04021800c802000018
:020000040000fa
:04021c00c802000014
:020000040000fa
:04022000c802000010
:020000040000fa
:04022400c80200000c
:020000040000fa
:04022800c802000008
:020000040000fa
:04022c00c802000004
:020000040000fa
:04023000c802000000
:020000040000fa
:04023400c8020000fc
:020000040000fa
:04023800c8020000f8
:020000040000fa
:04023c00c8020000f4
:020000040000fa
:04024000c8020000f0
:020000040000fa
:04024400c8020000ec
:020000040000fa
:04024800c8020000e8
:020000040000fa
:04024c00c8020000e4
:020000040000fa
:04025000c8020000e0
:020000040000fa
:04025400c8020000dc
:020000040000fa
:04025800c8020000d8
:020000040000fa
:04025c00c8020000d4
:020000040000fa
:04026000c8020000d0
:020000040000fa
:04026400c8020000cc
:020000040000fa
:04026800c8020000c8
:020000040000fa
:04026c00c8020000c4
:020000040000fa
:04027000c8020000c0
:020000040000fa
:04027400c8020000bc
:020000040000fa
:04027800c8020000b8
:020000040000fa
:04027c00c8020000b4
:020000040000fa
:04028000c8020000b0
:020000040000fa
:04028400c8020000ac
:020000040000fa
:04028800c8020000a8
:020000040000fa
:04028c00c8020000a4
:020000040000fa
:04029000c8020000a0
:020000040000fa
:04029400c80200009c
:020000040000fa
:04029800c802000098
:020000040000fa
:04029c00c802000094
:020000040000fa
:0402a000c802000090
:020000040000fa
:0402a400c80200008c
:020000040000fa
:0402a800c802000088
:020000040000fa
:0402ac00c802000084
:020000040000fa
:0402b000c802000080
:020000040000fa
:0402b400c80200007c
:020000040000fa
:0402b800c802000078
:020000040000fa
:0402bc00c802000074
:020000040000fa
:0402c000c802000070
:020000040000fa
:0402c400c80200006c
:020000040000fa
:0402c800c802000068
:020000040000fa
:0402cc00c802000064
:020000040000fa
:0402d000c802000060
:020000040000fa
:0402d400c80200005c
:020000040000fa
:0402d800c802000058
:020000040000fa
:0402dc00c802000054
:020000040000fa
:0402e000c802000050
:020000040000fa
:0402e400c80200004c
:020000040000fa
:0402e800c802000048
:020000040000fa
:0402ec00c802000044
:020000040000fa
:0402f000c802000040
:020000040000fa
:0402f400c80200003c
:020000040000fa
:0402f800c802000038
:020000040000fa
:0402fc00c802000034
:020000040000fa
:04030000c80200002f
:020000040000fa
:04030400c80200002b
:020000040000fa
:04030800c802000027
:020000040000fa
:04030c00c802000023
:020000040000fa
:04031000c80200001f
:020000040000fa
:04031400c80200001b
:020000040000fa
:04031800c802000017
:020000040000fa
:04031c00c802000013
:020000040000fa
:04032000c80200000f
:020000040000fa
:04032400c80200000b
:020000040000fa
:04032800c802000007
:020000040000fa
:04032c00c802000003
:020000040000fa
:04033000c8020000ff
:020000040000fa
:04033400c8020000fb
:020000040000fa
:04033800c8020000f7
:020000040000fa
:04033c00c8020000f3
:020000040000fa
:04034000c8020000ef
:020000040000fa
:04034400c8020000eb
:020000040000fa
:04034800c8020000e7
:020000040000fa
:04034c00c8020000e3
:020000040000fa
:04035000c8020000df
:020000040000fa
:100400000f8320000eff20000e0188000000000076
:10041000000020000000e000020032000001200087
:1004200020028800140007005b0007000000e000c5
:1004300003003a00c05020000100200002003700f5
:100440000000200001002000810f70000100320038
:1004500014000700000020000000e000020032004d
:100460000000020000000000ce02020000000000b8
:100470000040da000000fe004440a9000000200017
:100480000000e0000300320000002000a00188000e
:100490004440a800000006008a1f78008b1f7800e7
:1004a0000000060091018800800478000000eb0045
:1004b0001a003700e284440032a0b4009905ba0063
:1004c000e284440032a0b4009906ba00e2844400f9
:1004d00032a0b4000006eb00476fde00fd07b2005b
:1004e000636ce10003003a00ebff07000000eb0043
:1004f0000a003700606ce10004003a00005deb0088
:100500008b05e900fdff3e00040037006168e10053
:10051000010032000086eb000b00070019c7ba008b
:100520001905ba000e04e00003003a000a00e000da
:10053000e0ff3a0000000600fe07b2009e018800be
:100540008a047800f5ff3700395dba008b05e900b1
:100550000c003200295dba008b05e900080032006a
:100560000c00e00003003a00e284440032a0b40032
:10057000f5ff370019ddba008b05e900faff3a00f4
:100580008904e800e184440032a0b40000000600c1
:0c0590000040da000000fe000000050042
:020000040000fa
:10059c000400fa00000f780011079800f01f2000eb
:1005ac0060198800c822ef0081168000c0ff2f0060
:1005bc000080600080168800a1168000c0ff2f000c
:1005cc0000806000a016880016c8bf000080fb00e9
:1005dc006016880001003700000000002ec8bf0024
:1005ec000081fb00d0cc2c000010b8004308de00ca
:1005fc006a00b9000000780000005100004078004b
:10060c002ce8b7002ec8bf008080fb00d0cc2c009b
:10061c000008b8004308de00004078002de8b70061
:10062c002a68ef00230037002cc8bf008080fb0035
:10063c006081200000804000104078000080fb00aa
:10064c0060168800a01680000010a100a01688007b
:10065c00803821000100200001010700a016800055
:10066c000010a000a01688002dc8bf008080fb00e1
:10067c006081200000804000104078000080fb006a
:10068c0060168800a01680000000a100a01688004b
:10069c008038210001002000f1000700a016800026
:1006ac000010a000a01688002ac8bf000040e80077
:1006bc002ae8b7002ac8bf00e14f4000daff3a0031
:1006cc002ec8bf000040e8002ee8b700e1822000f1
:1006dc009140780040c6b30080cf5000beff3a0076
:1006ec002e68ef00bdff37000000fa00f01f20005d
:1006fc0060198800001680003000b30000168800d6
:10070c00c822ef00d022ef0020c8bf000080fb0001
:10071c006016880020c8bf000080fb00a01688006f
:10072c002a68ef001c0037002b68ef00140037001c
:10073c002bc8bf008080fb0000822000008040009e
:10074c00104078000080fb00601688002ac8bf00ab
:10075c008080fb0000822000008040001040780068
:10076c000080fb00a016880000242400f10020006b
:10077c00bb0007002bc8bf000040e8002be8b70007
:10078c002bc8bf00e94f5000e9ff36002ac8bf0054
:10079c000040e8002ae8b7002ac8bf00e94f500023
:1007ac00e1ff3600deff37000000fa00f01f2000ea
:1007bc0060198800001680003000b3000016880015
:1007cc00c822ef00d022ef0016c8bf000080fb004b
:1007dc006016880016c8bf000080fb00a0168800b9
:1007ec0010168000610060000000e00013003a0069
:1007fc000000000010168000610060000000e000a6
:10080c00fcff32002cc8bf000040e8002ce8b70009
:10081c002cc8bf00ea4f500004003a002c68ef00cf
:10082c002dc8bf000040e8002de8b7002dc8bf0060
:10083c00ea4f500001003a002d68ef0010168000be
:10084c00620060000000e0001a00320000000000ae
:10085c0010168000620060000000e000fcff3a000f
:10086c002cc8bf000040e9002ce8b7002dc8bf0021
:10087c000004e00004003a002cc8bf00e14f400027
:10088c0001003a002c68ef002dc8bf000004e00006
:10089c00080032002cc8bf00e14f400005003a00b0
:1008ac0090c0b3002ce8b7002dc8bf000040e90091
:1008bc002de8b7002cc8bf008080fb0060812000b1
:1008cc0000804000104078000080fb00601688001b
:1008dc002dc8bf008080fb0060812000008040009c
:1008ec00104078000080fb00a0168800bcff370089
:1008fc000000fa00f01f200060198800c822ef00e9
:10090c00d022ef0016c8bf000080fb0060168800e4
:10091c0016c8bf000080fb00a01688002a68ef00f4
:10092c001c0037002b68ef00140037002bc8bf00e9
:10093c008080fb0060812000008040001040780027
:10094c000080fb00601688002ac8bf008080fb0076
:10095c006081200000804000104078000080fb0087
:10096c00a016880000242400f10020003c000700a1
:10097c002bc8bf000040e8002be8b7002bc8bf0015
:10098c00e94f5000e9ff36002ac8bf000040e800dc
:10099c002ae8b7002ac8bf00e94f5000e1ff360033
:1009ac00deff37000000fa00f01f200060198800fd
:1009bc00c822ef000040800060168800010037005c
:1009cc00000000002ac8bf000080fb00800040002f
:1009dc000080200000804000100078006016880025
:1009ec00005a2200610220001d0007002ac8bf0027
:1009fc000040e8002ae8b7002ac8bf00eb4f5000bf
:0c0a0c00efff3a002a68ef00eeff370011
:020000040000fa
:100a1800000800002a0000000200000000ffff009c
:100a2800dd887700c0777300774477000477fc008f
:100a38003300770040772100ddc0f900a4b09900a9
:100a48009282f8008090000001020300040506006d
:100a5800070809002a08000006000000000000003e
:040a6800000000008a
:020000040000fa
:100a6c00f03fb1000180b10006003500ee03090033
:100a7c0000000000403fb1000180b100fbff3d00d1
:100a8c001000b000203fb0000200350000800900cb
:080a9c0000000000000006004c
:020000040000fa
:0200000401f009
:04000000ffff0000fe
:020000040000fa
:0200000401f009
:04000800ffff0000f6
:020000040000fa
:0200000401f009
:04000c0002000000ee
:020000040000fa
:0200000401f009
:04001000a500000047
:020000040000fa
:0200000401f009
:040014005f00000089
:020000040000fa
:0200000401f009
:04001800f7000000ed
:020000040000fa
:0200000401f009
:04001c00dfff000002
:00000001FF
